:100000000C9472000C9494000C9494000C94940042
:100010000C9494000C9494000C9494000C94940010
:100020000C9494000C9494000C9494000C94940000
:100030000C9494000C9494000C9494000C949400F0
:100040000C9494000C9494000C9494000C949400E0
:100050000C9494000C9494000C9494000C949400D0
:100060000C9494000C944D030C9494000C941E0377
:100070000C9494000C9494000C9494000C949400B0
:100080000C9494000C9494000C9494000C949400A0
:100090000C9494000C9494000C9494000C94940090
:1000A0000C9494000C9494000C9494000C94940080
:1000B0000C9494000C9494000C9494000C94940070
:1000C0000C9494000C9494000C9494000C94940060
:1000D0000C9494000C9494000C9494000C94940050
:1000E0000C94940011241FBECFEFD1E2DEBFCDBF30
:1000F00000E00CBF12E0A0E0B2E0ECE0F2E100E0D2
:100100000BBF02C007900D92AC38B107D9F71BBEE8
:1001100014E0ACE8B2E001C01D92A73AB107E1F7E4
:100120000E9484030C9404090C9400008AE090E07F
:100130000E94110408950E94A7040895FC01809173
:10014000900290919102009739F4F0939102E0931C
:10015000900211861086089591878087F09391020E
:10016000E09390020895E0919002F091910230970F
:1001700031F4909391028093900208C0F901208598
:10018000318521153105D1F791878087FC011186D2
:1001900010860895CF92DF92EF92FF920F931F93F4
:1001A000CF93DF93EC01C0909002D0909102C114E4
:1001B000D10479F490939102809390021986188665
:1001C00023C0F801808591857801009761F08C014A
:1001D00003C08601EE24FF24C801BE010E9463050E
:1001E0008230910574F7E114F10439F4D986C88698
:1001F000D0939102C093900207C0F701808591854A
:1002000099878887D187C087DF91CF911F910F9100
:10021000FF90EF90DF90CF9008950F931F93CF93AF
:10022000DF938AE090E00E94E805C0919002D091AF
:1002300091020CE312E011C000D00F92EDB7FEB7AF
:1002400012830183D483C3830E94D6050884D98591
:10025000C02D0F900F900F900F90209769F78AE0B4
:1002600090E00E94E805DF91CF911F910F910895D2
:1002700009C0FC01208531853093910220939002C2
:100280000E94A7048091900290919102009789F7B3
:100290000895CF92DF92FF920F931F93CF93DF9336
:1002A000CDB7DEB728970FB6F894DEBF0FBECDBF2F
:1002B000009719F0FC01F08002C091E6F92E82E46B
:1002C000C82E82E0D82E0F920F92EDB7FEB7D282E1
:1002D000C1820E94D6050F900F904091A1045091C9
:1002E000A204CE01019668E070E00E94A20500978A
:1002F000D9F00E9496008C01BE016F5F7F4F0E9473
:100300006C05F8E6FF1621F084E7F81649F404C0FE
:10031000C8010E949E00D7CFC8010E94B300D3CF6E
:10032000C8010E94CA00CFCF0E940D010E9438016F
:1003300028960FB6F894DEBF0FBECDBFDF91CF91E8
:100340001F910F91FF90DF90CF9008951092990325
:1003500010929803109297031092960310929B03A9
:1003600010929A0310929502109294020895E82F29
:1003700080919A0390919B03019621E030E0409197
:1003800094025091950261E04030560711F020E050
:1003900030E0282339232115310579F460E071E03C
:1003A0000E94EA0390939B0380939A0384569C4F88
:1003B000DC01EC9381E090E0089580E090E0089506
:1003C000809194029091950220919A0330919B0321
:1003D0002817390779F0019660E071E00E94EA037E
:1003E000909395028093940284569C4FFC018081E7
:1003F00090E0089580E090E00895E82F80919803C0
:1004000090919903019621E030E04091960350913C
:10041000970361E04030560711F020E030E02823D8
:1004200039232115310579F460E071E00E94EA0377
:1004300090939903809398038A569D4FDC01EC9327
:1004400081E090E0089580E090E008958091960327
:1004500090919703209198033091990328173907B9
:1004600079F0019660E071E00E94EA0390939703AF
:10047000809396038A569D4FFC01808190E00895F9
:1004800080E090E00895CF93C82F8A3019F48DE072
:100490000E94430280919C04882331F4C093C600DB
:1004A00081E080939C0404C08C2F90E00E94FD01A9
:1004B000CF910895CF93C82F8A3019F48DE00E9410
:1004C0005A02F89480919C04882361F4C093C6007A
:1004D00081E080939C040CC0789481E28A95F1F7C6
:1004E0000000F8948C2F90E00E94FD010097A1F38A
:1004F000789481E090E0CF910895F8940E94E00113
:1005000078948823D1F3843011F090E008958FEF30
:100510009FEF089587E792E09093A4048093A3044B
:1005200089E692E09093A2048093A10410929C0427
:100530000E94A6011092C50087E08093C400E0EC01
:10054000F0E0808182608083E1ECF0E0808188606F
:1005500080838081806480838081806180838081CA
:10056000806880830895CF93DF93FC0162E070E0A0
:100570000E94EA03EB0122E030E008C0CF01B9019C
:100580000E94EA03009741F02F5F3F4FC217D30745
:10059000ACF781E090E002C080E090E0DF91CF9185
:1005A0000895CF92DF92EF92FF920F931F93CF9314
:1005B000DF93009721F00E9440057C0104C090ED7C
:1005C000E92E97E0F92E00E010E0C2E0D0E085E4EB
:1005D000C82E82E0D82E16C0CE010E94B30200972A
:1005E00081F00F5F1F4F00D00F92EDB7FEB7D282A0
:1005F000C182D483C3830E94D6050F900F900F90C1
:100600000F902196EC16FD063CF700D00F928DE579
:1006100092E0EDB7FEB792838183148303830E9437
:10062000D6050F900F900F900F90DF91CF911F91F3
:100630000F91FF90EF90DF90CF9008951F920F924F
:100640000FB60F920BB60F9211242F933F934F9337
:100650005F936F937F938F939F93AF93BF93EF932A
:10066000FF930E942602882319F410929C0402C072
:100670008093C600FF91EF91BF91AF919F918F91B1
:100680007F916F915F914F913F912F910F900BBE92
:100690000F900FBE0F901F9018951F920F920FB6DC
:1006A0000F920BB60F9211242F933F934F935F93AA
:1006B0006F937F938F939F93AF93BF93CF93EF935A
:1006C000FF93C091C600C43039F0CD3009F4CAE0C0
:1006D0008C2F90E00E9443028C2F90E00E94B70183
:1006E000FF91EF91CF91BF91AF919F918F917F91AA
:1006F0006F915F914F913F912F910F900BBE0F9093
:100700000FBE0F901F9018950F931F93CF93DF93F9
:10071000CDB7DEB7C058D0400FB6F894DEBF0FBEDD
:10072000CDBF0E948A02789400E012E00F920F92EF
:10073000EDB7FEB7128301830E94D6050F900F908C
:100740004091A1045091A204CE01019660E870E0AE
:100750000E94A205009781F1CE01019663E072E04C
:100760000E945E05009711F380E090E063E072E084
:100770000E945E058C01CE01019669E072E00E9444
:100780006305009721F4C8010E94D10210C0CE0178
:1007900001966FE072E00E946305009721F4C801A2
:1007A0000E94490104C084E192E00E94EF0587E2C3
:1007B00092E00E94EF05FFCF80E090E0C058DF4F4D
:1007C0000FB6F894DEBF0FBECDBFDF91CF911F9162
:1007D0000F91089597FB092E07260AD077FD04D0C4
:1007E0000CD006D000201AF4709561957F4F0895C3
:1007F000F6F7909581959F4F0895AA1BBB1B51E179
:1008000007C0AA1FBB1FA617B70710F0A61BB70B80
:10081000881F991F5A95A9F780959095BC01CD0125
:100820000895CF93DF93AC018230910510F442E03C
:1008300050E0E0919F04F091A00420E030E0A0E0BF
:10084000B0E024C08081918184179507D0F084178F
:10085000950771F482819381109729F013969C93E8
:100860008E9312972CC09093A00480939F0427C06E
:100870002115310519F08217930718F49C01BD0169
:10088000EF0192818381DF01E92FF82F3097D1F6B4
:1008900021153105F9F0C901841B950B84309105B0
:1008A00080F48A819B816115710521F0FB0193839E
:1008B000828304C09093A00480939F04FE0132962B
:1008C00042C0FE01E80FF91F4193519302979983AB
:1008D000888339C080919D0490919E04009741F4D3
:1008E000809187029091880290939E0480939D044A
:1008F00020918502309186022115310541F42DB7F2
:100900003EB78091890290918A02281B390BE091B1
:100910009D04F0919E04E217F30798F42E1B3F0B01
:100920002417350770F0CA0102962817390748F0D6
:100930008E0F9F1F90939E0480939D04419351932B
:1009400002C0E0E0F0E0CF01DF91CF9108950F9376
:100950001F93CF93DF939C01009709F48CC0DC01B7
:10096000129713961C921E92129760919F04709199
:10097000A0046115710589F48D919C911197820FE6
:10098000931F20919D0430919E042817390769F523
:10099000B0939E04A0939D046EC0FB0140E050E024
:1009A00001C0FC01EA17FB0730F482819381AF019B
:1009B0000097B9F71FC0E9012297FB83EA830881FA
:1009C0001981C901800F911F8E179F0759F48081EB
:1009D0009181800F911F02969983888382819381F0
:1009E0009B838A834115510529F4B093A004A093F9
:1009F0009F0441C0FA01B383A283C191D191EC0F4E
:100A0000FD1FAE17BF0781F4F901929182918C0FFF
:100A10009D1F0296DA0111969C938E938281938199
:100A200013969C938E931297E0E0F0E002C0FB01D6
:100A3000BC01DB0112968D919C9113970097B9F739
:100A4000CB0102962D913C911197820F931F20911B
:100A50009D0430919E042817390769F4309729F4D2
:100A60001092A00410929F0402C01382128270930D
:100A70009E0460939D04DF91CF911F910F91089583
:100A8000FC0188279927E89421912032E9F3293045
:100A900010F02E30C8F32B3241F02D3239F4689427
:100AA00004C00E949A05820F911D219120532A3083
:100AB000C0F31EF4909581959F4F089542E952E04E
:100AC0000E9473050895FB01DC018D91019080194E
:100AD0000110D9F3990B0895FB01DC0101900D92EF
:100AE0000020E1F70895FA01A191B081009719F46F
:100AF0001097E1F0CD01DC01CD010D90002011F443
:100B0000C00113C0FB012191222319F02015D9F750
:100B1000F3CFFB012191201519F41E92119606C006
:100B20002223C1F70D900020A1F7D001FA01A19373
:100B3000B08308957AE0979F902D879F802D910D27
:100B400011240895CF92DF92EF92FF920F931F939B
:100B5000CF93DF938C016A01FA01838180FF1AC071
:100B600016161706BCF47B01E8010EC0C6010E94F0
:100B70003A08FFEF8F3F9F0769F089930894E108D7
:100B8000F1088A30910521F021E0E216F10471F7B5
:100B9000188202C000E010E0C801DF91CF911F91E0
:100BA0000F91FF90EF90DF90CF900895CF93DF9358
:100BB000CDB7DEB7FE013696619171918091A304A5
:100BC0009091A404AF010E941D06DF91CF9108957A
:100BD0006091A3047091A4040E947A0808950F9371
:100BE0001F93CF93DF938C01E091A304F091A404B1
:100BF000838181FF1AC0C0E0D0E005C0199500973D
:100C000011F0CFEFDFEFF80181918F016091A30424
:100C10007091A404DB011896ED91FC91199788233B
:100C200069F78AE01995009711F0CFEFDFEFCE0159
:100C3000DF91CF911F910F9108952F923F924F9284
:100C40005F926F927F928F929F92AF92BF92CF925C
:100C5000DF92EF92FF920F931F93CF93DF93CDB765
:100C6000DEB72D970FB6F894DEBF0FBECDBF3C01A7
:100C70007D876C875A01FC0117821682838181FF70
:100C8000C8C12E010894411C511CF3019381EC85CD
:100C9000FD8593FD859193FF8191FD87EC878823E6
:100CA00009F4B3C1853241F493FD859193FF81919D
:100CB000FD87EC87853229F490E0B3010E947A0821
:100CC000E4CFFF24EE2410E01032B0F48B3269F050
:100CD0008C3228F4803251F0833271F40BC08D32A3
:100CE00039F0803349F411602CC01260146029C0BF
:100CF000186027C0106125C017FD2EC0282F205373
:100D00002A3098F416FF08C08F2D880FF82EFF0C9C
:100D1000FF0CF80EF20E15C08E2D880FE82EEE0C8B
:100D2000EE0CE80EE20E10620CC08E3221F416FDBD
:100D30006CC1106406C08C3611F4106802C088368D
:100D400059F4EC85FD8593FD859193FF8191FD8795
:100D5000EC87882309F0B8CF982F9554933018F07A
:100D60009052933038F424E030E0A20EB31E3FE3FB
:100D700039830FC0833631F0833781F0833509F032
:100D80005AC022C0F5018081898322E030E0A20EA2
:100D9000B31E21E0C22ED12C420114C092E0292EB4
:100DA000312C2A0C3B1CF5018080918016FF03C07A
:100DB0006F2D70E002C06FEF7FEFC4010E942F081B
:100DC0006C0151011F7715C082E0282E312C2A0CAE
:100DD0003B1CF5018080918016FF03C06F2D70E0F1
:100DE00002C06FEF7FEFC4010E9424086C011068FD
:100DF000510113FD1CC006C080E290E0B3010E94C7
:100E00007A08EA948E2D90E0C816D906A8F30FC090
:100E1000F40117FD859117FF81914F0190E0B30117
:100E20000E947A08E110EA940894C108D108C1141C
:100E3000D10471F7E7C0843611F0893651F5F50118
:100E400017FF07C080819181A281B38124E030E047
:100E500008C080819181AA2797FDA095BA2F22E032
:100E600030E0A20EB31E012F0F76B7FF08C0B09579
:100E7000A095909581959F4FAF4FBF4F0068BC01E3
:100E8000CD01A2012AE030E00E94A608D82ED41895
:100E90003FC0853721F41F7E2AE030E020C0197F53
:100EA0008F36A9F0803720F4883509F0AEC00BC02A
:100EB000803721F0883709F0A8C001C0106114FF05
:100EC00009C0146007C014FF08C0166006C028E0FF
:100ED00030E005C020E130E002C020E132E0F50161
:100EE00017FF07C0608171818281938144E050E0E7
:100EF00006C06081718180E090E042E050E0A40E85
:100F0000B51EA2010E94A608D82ED418012F0F7773
:100F100006FF09C00E7FDF1430F404FF06C002FD97
:100F200004C00F7E02C01D2D01C01F2D802F90E038
:100F300004FF0CC0FE01ED0DF11D2081203311F4E2
:100F4000097E09C002FF06C01E5F05C0867890704A
:100F5000009709F01F5F802E992403FD12C000FF47
:100F60000DC0FD2C1E1550F4FE0CF11A1E2D06C0EE
:100F700080E290E0B3010E947A081F5F1E15C0F363
:100F800004C01E1510F4E11A01C0EE2484FE0FC047
:100F900080E390E0B3010E947A0882FE1FC081FEC8
:100FA00003C088E590E010C088E790E00DC0C40160
:100FB00086789070009791F081FC02C080E201C0B9
:100FC0008BE207FD8DE290E0B3010E947A0806C033
:100FD00080E390E0B3010E947A08FA94DF14C0F332
:100FE000DA94F201ED0DF11D808190E0B3010E94D1
:100FF0007A08DD20A9F706C080E290E0B3010E94E4
:101000007A08EA94EE20C1F740CEF30186819781F9
:1010100002C08FEF9FEF2D960FB6F894DEBF0FBE84
:10102000CDBFDF91CF911F910F91FF90EF90DF9097
:10103000CF90BF90AF909F908F907F906F905F9078
:101040004F903F902F900895FC01059061507040A3
:101050000110D8F7809590958E0F9F1F0895FC0181
:101060006150704001900110D8F7809590958E0FD7
:101070009F1F0895CF93DF93EC012B8120FF35C094
:1010800026FF09C02F7B2B838E819F8101969F8332
:101090008E838A8128C022FF0FC0E881F981808178
:1010A000992787FD9095009719F420622B831DC026
:1010B0003196F983E88311C0EA85FB85CE01199545
:1010C00097FF0BC02B813FEF8F3F930711F480E117
:1010D00001C080E2822B8B8308C02E813F812F5F6D
:1010E0003F4F3F832E8390E002C08FEF9FEFDF9151
:1010F000CF9108950F931F93CF93DF938C01EB0152
:101100008B8181FF1BC082FF0DC02E813F818C81AE
:101110009D812817390764F4E881F9810193F983E7
:10112000E88306C0E885F985802F1995009731F48A
:101130008E819F8101969F838E8302C00FEF1FEFE8
:10114000C801DF91CF911F910F910895FA01AA274D
:10115000283051F1203181F1E8946F936E7F6E5FFA
:101160007F4F8F4F9F4FAF4FB1E03ED0B4E03CD0A8
:10117000670F781F891F9A1FA11D680F791F8A1F8B
:10118000911DA11D6A0F711D811D911DA11D20D0F2
:1011900009F468943F912AE0269F11243019305DAC
:1011A0003193DEF6CF010895462F4770405D41939D
:1011B000B3E00FD0C9F7F6CF462F4F70405D4A33EA
:1011C00018F0495D31FD4052419302D0A9F7EACFB2
:1011D000B4E0A6959795879577956795BA95C9F7E1
:1011E00000976105710508959B01AC010A2E0694D4
:1011F0005795479537952795BA95C9F7620F731F8D
:0C120000841F951FA01D0895F894FFCFD7
:10120C002420000A0D092020007072696D65006CA5
:10121C0069737400556E6B6E6F776E20636F6D6DB6
:10122C00616E642E2E2E006C6F676F75742C2067A8
:10123C006F6F642062796520212121002D2D3E25C0
:10124C0073003E2000256420697320612070726950
:10125C006D65206E756D62657221210A00636F7574
:10126C006E74203D2025640A00000000010000007F
:10127C000000007D02000000000002000000005A87
:0C128C0002000000000000A70420000089
:00000001FF
