:100000000C9472000C9494000C9494000C94940042
:100010000C9494000C9494000C9494000C94940010
:100020000C9494000C9494000C9494000C94940000
:100030000C9494000C9494000C9494000C9414056B
:100040000C9494000C9494000C9494000C949400E0
:100050000C9494000C9494000C9494000C949400D0
:100060000C9494000C94E5050C9494000C94B60543
:100070000C9494000C9494000C9494000C949400B0
:100080000C9494000C9494000C9494000C949400A0
:100090000C9494000C9494000C9494000C94940090
:1000A0000C9494000C9494000C9494000C94940080
:1000B0000C9494000C9494000C9494000C94940070
:1000C0000C9494000C9494000C9494000C94940060
:1000D0000C9494000C9494000C9494000C94940050
:1000E0000C94940011241FBECFEFD1E2DEBFCDBF30
:1000F00000E00CBF12E0A0E0B2E0E6EAF7E100E0C9
:100100000BBF02C007900D92A03DB107D9F71BBEEF
:1001100015E0A0EDB2E001C01D92A039B107E1F7F2
:100120000E9438060C94D10B0C940000CF93DF93FF
:10013000FC0162E070E00E946206EB0122E030E028
:1001400008C0CF01B9010E946206009741F02F5FFD
:100150003F4FC217D307ACF781E090E002C080E0C8
:1001600090E0DF91CF910895CF92DF92EF92FF92CE
:100170000F931F93CF93DF93009721F00E94B8074E
:100180007C0104C090EDE92E97E0F92EC2E0D0E0AA
:1001900000E010E080E0C82E82E0D82E16C0CE012C
:1001A0000E949600009781F00F5F1F4F00D00F92C2
:1001B000EDB7FEB7D282C182D483C3830E94740894
:1001C0000F900F900F900F902196EC16FD063CF7C4
:1001D00000D00F928AE192E0EDB7FEB7928381835F
:1001E000148303830E9474080F900F900F900F9058
:1001F000DF91CF911F910F91FF90EF90DF90CF9003
:1002000008950F931F93CF93DF93CDB7DEB7629717
:100210000FB6F894DEBF0FBECDBF04E212E00F921E
:100220000F92EDB7FEB7128301830E9474080F90FE
:100230000F9040918A0550918B05CE01019668E0A0
:1002400070E00E941A08009761F0CE0101960E94AA
:10025000B807BC01009729F0CE0109960E948404DA
:10026000DECF0E942C040E946E0462960FB6F894B2
:10027000DEBF0FBECDBFDF91CF911F910F910895CB
:10028000CF93DF9388E292E00E948D088091D7029D
:100290009091D802E091D702F091D80200D000D01E
:1002A000CDB7DEB7219622E332E0ADB7BEB71296E6
:1002B0003C932E9311972CE330E0B9010E94620623
:1002C0007B836A83CF01B9010E9462069D838C8380
:1002D0000E9474088DB79EB706960FB6F8949EBF1D
:1002E0000FBE8DBFDF91CF9108958FEF80930B01EB
:1002F00080930A01089510920B011092D002089584
:100300008FEF80930B018093D00208950F931F937A
:10031000CF93DF93CDB7DEB72A970FB6F894DEBF41
:100320000FBECDBF009741F0DC012C91222321F0BC
:100330000E94B8078C0102C000E014E18091D10254
:100340009091D202009739F00E947B011092D20264
:100350001092D10208C00E94800181E090E0909349
:10036000D2028093D10286E891E09A83898300D0FB
:1003700000D0EDB7FEB73196CE010396ADB7BEB74C
:1003800012969C938E9311978FE392E093838283CE
:10039000158304830E94BB08EDB7FEB736960FB6EF
:1003A000F894FEBF0FBEEDBFC80160E071E00E948F
:1003B0006206CE0101960E9484042A960FB6F89434
:1003C000DEBF0FBECDBFDF91CF911F910F9108957A
:1003D00021E030E002C0220F331F8A95E2F720951A
:1003E0008091D00228232093D00220930B010895FE
:1003F00021E030E002C0220F331F8A95E2F780919E
:10040000D002822B8093D00280930B0108958095B7
:100410008093D00280930B0108951092DE03109216
:10042000DD031092DC031092DB031092E0031092C4
:10043000DF031092DA021092D9020895482F20911A
:10044000DF033091E0032F5F3F4FC90160E071E0AF
:100450000E9462069C018091D9029091DA022817CD
:10046000390759F03093E0032093DF032F513C4FBD
:10047000F901408381E090E0089580E090E00895E4
:100480008091D9029091DA022091DF033091E0034C
:100490002817390779F0019660E071E00E94620642
:1004A0009093DA028093D9028F519C4FFC01808196
:1004B00090E0089580E090E00895482F2091DD03BA
:1004C0003091DE032F5F3F4FC90160E071E00E9471
:1004D00062069C018091DB039091DC0328173907A9
:1004E00059F03093DE032093DD0325523D4FF9018F
:1004F000408381E090E0089580E090E0089580914D
:10050000DB039091DC032091DD033091DE0328179B
:10051000390779F0019660E071E00E9462069093DD
:10052000DC038093DB0385529D4FFC01808190E0CA
:10053000089580E090E00895CF92DF92EF92FF92CD
:100540000F931F93CF93DF93009741F0FC0120811D
:10055000222321F00E94B8078C0102C000ED17E0B1
:10056000C2E0D0E0EE24FF2485E4C82E82E0D82E3D
:1005700017C0CE010E949600009789F00894E11CF4
:10058000F11C00D00F92EDB7FEB7D282C182D483A6
:10059000C3830E9474080F900F900F900F902196C4
:1005A0000C171D0734F700D00F928EE592E0EDB7DF
:1005B000FEB792838183F482E3820E9474080F90D5
:1005C0000F900F900F90DF91CF911F910F91FF909F
:1005D000EF90DF90CF9008951092E2041092E10422
:1005E00010928405109283050895CF93DF93482FCE
:1005F000E92F8091E1049091E204C0918305D091AC
:100600008405019620E130E0B9010E9462068C1752
:100610009D0731F18091E1049091E2040196B901C6
:100620000E9462069093E2048093E1048091E104C9
:100630009091E204DC01AA0FBB1F63E0880F991FB1
:100640006A95E1F7A80FB91FAD51BB4FC42FDE2F3C
:100650008AE009900D928150E1F781E090E002C0BC
:1006600080E090E0DF91CF9108959C014091E104FA
:100670005091E204809183059091840548175907B1
:1006800031F18091830590918405019660E170E0DD
:100690000E94620690938405809383058091830570
:1006A00090918405FC01EE0FFF1FA3E0880F991FB6
:1006B000AA95E1F7E80FF91FD901ED51FB4F8AE048
:1006C00001900D928150E1F781E090E0089580E083
:1006D00090E00895AF92BF92CF92DF92EF92FF9297
:1006E0000F931F93CF93DF93CDB7DEB7CA54D0409B
:1006F0000FB6F894DEBF0FBECDBFCE010B960E94A1
:100700004E08009709F475C0CE010B966BE672E0B7
:100710000E94D6078C0180E090E06BE672E00E94B8
:10072000D6077C0180E090E06BE672E00E94D6077D
:100730005C0180E090E06BE672E00E94D6076C01FD
:100740000115110539F480E792E00E948D080E949E
:100750002C044FC0C80168E772E00E94DB070097D5
:1007600021F4C7010E949C0250C0C8016EE772E0EC
:100770000E94DB070097C9F5E114F10419F484E83D
:1007800092E035C0C7010E94B80760E071E00E94A6
:1007900062068B01C50168E772E00E94DB070097E3
:1007A00019F48CE992E009C0C5016DE872E00E947D
:1007B000DB070097B9F486E891E09A838983CE013C
:1007C0000396C114D10411F0B60102C06CE872E0C6
:1007D0000E94E407F894CE010196B8010E948404B7
:1007E000789413C081E992E002C089E992E00E9406
:1007F0008D080F920F9288E692E0EDB7FEB79283D4
:1008000081830E9474080F900F90C65BDF4F0FB674
:10081000F894DEBF0FBECDBFDF91CF911F910F9136
:10082000FF90EF90DF90CF90BF90AF90089510921F
:10083000B200E6EBF0E0808180628083E0E7F0E0E8
:10084000808181608083E1EBF0E080818160808342
:100850008081826080830895EF92FF920F931F93AF
:10086000CF93DF938AE090E00E948608C091D30284
:10087000D091D40200E010E081EAE82E82E0F82E68
:1008800020C088819981080F191F00D000D0EDB7D2
:10089000FEB73196ADB7BEB71296FC92EE921197A5
:1008A00093838283158304830E9474080C84DD85FE
:1008B000C02D8DB79EB706960FB6F8949EBF0FBE9B
:1008C0008DBF2097F1F68AE090E00E948608DF91C4
:1008D000CF911F910F91FF90EF90089509C0FC01F7
:1008E000248535853093D4022093D3020E941F07BC
:1008F0008091D3029091D402009789F708958EE0F9
:1009000090E00E9489060895EF92FF920F931F9343
:10091000CF93DF93F82EE92E8B010E947F04EC0128
:10092000DC011296EF2DFE2D8AE001900D92815090
:10093000E1F719830883E091D302F091D402309754
:1009400029F4D093D402C093D3022FC040E050E0EA
:1009500020E030E001C0FD0180819181280F391F26
:100960002017310734F4A485B585AF01109799F7A6
:1009700001C0DF014115510579F48D919C911197CA
:10098000801B910B11969C938E93BD87AC87D0935F
:10099000D402C093D30224C0109751F4021B130B4E
:1009A00019830883FA01D587C4871D861C8618C061
:1009B0008D919C911197B901681B790B9801261BA9
:1009C000370B398328838D919C911197821B930B50
:1009D00011969C938E93FA01D587C487BD87AC8707
:1009E000DF91CF911F910F91FF90EF900895CF93DA
:1009F000DF930DC08C859D859093D4028093D302A4
:100A0000CE0102960E94F502CE010E941F07C091FE
:100A1000D302D091D402209721F088819981009748
:100A200049F3DF91CF9108951F920F920FB60F9265
:100A30000BB60F9211242F933F934F935F936F93B5
:100A40007F938F939F93AF93BF93EF93FF93E09127
:100A5000D302F091D402309749F0808191810197BF
:100A600091838083009711F40E94F704FF91EF9126
:100A7000BF91AF919F918F917F916F915F914F91B6
:100A80003F912F910F900BBE0F900FBE0F901F90B4
:100A90001895F8940E94400278948823D1F384300A
:100AA00011F090E008958FEF9FEF0895CF93C82F36
:100AB0008A3019F48DE00E945605F89480918505DE
:100AC000882359F4C093C60081E0809385050AC04D
:100AD000789486EF8A95F1F7F8948C2F0E945D0246
:100AE0000097B1F3789481E090E0CF9108958DEA7A
:100AF00092E090938B0580938A058BEB92E0909324
:100B00008D0580938C050E940D0210928505109230
:100B1000C50087E08093C400E0ECF0E08081826053
:100B20008083E1ECF0E08081886080838081806454
:100B30008083808180618083808180688083089544
:100B4000CF93C82F8A3019F48DE00E94A0058091C0
:100B50008505882331F4C093C60081E08093850524
:100B600003C08C2F0E945D02CF9108951F920F92B7
:100B70000FB60F920BB60F9211242F933F934F9302
:100B80005F936F937F938F939F93AF93BF93EF93F5
:100B9000FF930E947F02882319F41092850502C0FA
:100BA0008093C600FF91EF91BF91AF919F918F917C
:100BB0007F916F915F914F913F912F910F900BBE5D
:100BC0000F900FBE0F901F9018951F920F920FB6A7
:100BD0000F920BB60F9211241F932F933F934F93B5
:100BE0005F936F937F938F939F93AF93BF93EF9395
:100BF000FF93CF93DF93CDB7DEB72A97DEBFCDBF8C
:100C00001091C600143031F01D3009F41AE0812F24
:100C10000E94A005812F0E941E02143011F01A308C
:100C200071F48AE693E09A838983CE0103966CEA95
:100C300072E00E94E407CE0101960E94F5022A9616
:100C4000DEBFCDBFDF91CF91FF91EF91BF91AF910B
:100C50009F918F917F916F915F914F913F912F91D4
:100C60001F910F900BBE0F900FBE0F901F90189505
:100C7000CF93DF93CDB7DEB72A970FB6F894DEBFD8
:100C80000FBECDBF0E9477050E94EC020E941704A0
:100C90000F920F9282E492E0EDB7FEB792838183C8
:100CA0000E9474080F900F90F894CE0101960E9454
:100CB000350378940097C1F3E981FA81CE01039658
:100CC0001995F2CF97FB092E07260AD077FD04D09D
:100CD0000CD006D000201AF4709561957F4F0895CE
:100CE000F6F7909581959F4F0895AA1BBB1B51E184
:100CF00007C0AA1FBB1FA617B70710F0A61BB70B8C
:100D0000881F991F5A95A9F780959095BC01CD0130
:100D10000895CF93DF93AC018230910510F442E047
:100D200050E0E0918805F091890520E030E0A0E0F6
:100D3000B0E024C08081918184179507D0F084179A
:100D4000950771F482819381109729F013969C93F3
:100D50008E9312972CC0909389058093880527C0A5
:100D60002115310519F08217930718F49C01BD0174
:100D7000EF0192818381DF01E92FF82F3097D1F6BF
:100D800021153105F9F0C901841B950B84309105BB
:100D900080F48A819B816115710521F0FB019383A9
:100DA000828304C09093890580938805FE01329662
:100DB00042C0FE01E80FF91F4193519302979983B6
:100DC000888339C08091860590918705009741F40A
:100DD0008091CB029091CC029093870580938605F9
:100DE0002091C9023091CA022115310541F42DB775
:100DF0003EB78091CD029091CE02281B390BE09135
:100E00008605F0918705E217F30798F42E1B3F0B38
:100E10002417350770F0CA0102962817390748F0E1
:100E20008E0F9F1F90938705809386054193519362
:100E300002C0E0E0F0E0CF01DF91CF9108950F9381
:100E40001F93CF93DF939C01009709F48CC0DC01C2
:100E5000129713961C921E921297609188057091BA
:100E600089056115710589F48D919C911197820F07
:100E7000931F20918605309187052817390769F55A
:100E8000B0938705A09386056EC0FB0140E050E05B
:100E900001C0FC01EA17FB0730F482819381AF01A6
:100EA0000097B9F71FC0E9012297FB83EA83088105
:100EB0001981C901800F911F8E179F0759F48081F6
:100EC0009181800F911F02969983888382819381FB
:100ED0009B838A834115510529F4B0938905A0931A
:100EE000880541C0FA01B383A283C191D191EC0F6F
:100EF000FD1FAE17BF0781F4F901929182918C0F0B
:100F00009D1F0296DA0111969C938E9382819381A4
:100F100013969C938E931297E0E0F0E002C0FB01E1
:100F2000BC01DB0112968D919C9113970097B9F744
:100F3000CB0102962D913C911197820F931F209126
:100F40008605309187052817390769F4309729F409
:100F5000109289051092880502C013821282709344
:100F6000870560938605DF91CF911F910F910895BA
:100F7000FC0188279927E89421912032E9F3293050
:100F800010F02E30C8F32B3241F02D3239F4689432
:100F900004C00E941208820F911D219120532A3013
:100FA000C0F31EF4909581959F4F089545ED52E052
:100FB0000E94EB070895FB01DC018D9101908019DF
:100FC0000110D9F3990B0895FB01DC0101900D92FA
:100FD0000020E1F70895FA01A191B081009719F47A
:100FE0001097E1F0CD01DC01CD010D90002011F44E
:100FF000C00113C0FB012191222319F02015D9F75C
:10100000F3CFFB012191201519F41E92119606C011
:101010002223C1F70D900020A1F7D001FA01A1937E
:10102000B08308957AE0979F902D879F802D910D32
:1010300011240895CF92DF92EF92FF920F931F93A6
:10104000CF93DF938C016A01FA01838180FF1AC07C
:1010500016161706BCF47B01E8010EC0C6010E94FB
:10106000070BFFEF8F3F9F0769F089930894E10812
:10107000F1088A30910521F021E0E216F10471F7C0
:10108000188202C000E010E0C801DF91CF911F91EB
:101090000F91FF90EF90DF90CF9008950F931F93E3
:1010A000CF93DF938C01E0918A05F0918B058381CA
:1010B00080FF12C0E80180918A0590918B050E9403
:1010C000070B2FEF8F3F920739F089938A309105F4
:1010D00091F72197188202C000E010E0C801DF916B
:1010E000CF911F910F910895CF93DF93CDB7DEB7C6
:1010F000FE0136966191719180918C0590918D05DC
:10110000AF010E94EA08DF91CF91089560918C05AC
:1011100070918D050E94470B08950F931F93CF93F5
:10112000DF938C01E0918C05F0918D05838181FF27
:101130001AC0C0E0D0E005C01995009711F0CFEFBC
:10114000DFEFF80181918F0160918C0570918D0521
:10115000DB011896ED91FC911997882369F78AE0D5
:101160001995009711F0CFEFDFEFCE01DF91CF910E
:101170001F910F9108950F931F93CF93DF93CDB7D6
:10118000DEB72E970FB6F894DEBF0FBECDBF0E8927
:101190001F8986E08C831A8309838FEF9FE79E83E4
:1011A0008D83AE01465E5F4FCE010196688D798DCD
:1011B0000E94EA08EF81F885E00FF11F10822E9659
:1011C0000FB6F894DEBF0FBECDBFDF91CF911F9158
:1011D0000F9108952F923F924F925F926F927F925C
:1011E0008F929F92AF92BF92CF92DF92EF92FF9237
:1011F0000F931F93CF93DF93CDB7DEB72D970FB625
:10120000F894DEBF0FBECDBF3C017D876C875A01CD
:10121000FC0117821682838181FFC8C12E010894C8
:10122000411C511CF3019381EC85FD8593FD859153
:1012300093FF8191FD87EC87882309F4B3C1853240
:1012400041F493FD859193FF8191FD87EC87853271
:1012500029F490E0B3010E94470BE4CFFF24EE2471
:1012600010E01032B0F48B3269F08C3228F4803206
:1012700051F0833271F40BC08D3239F0803349F470
:1012800011602CC01260146029C0186027C0106162
:1012900025C017FD2EC0282F20532A3098F416FFA2
:1012A00008C08F2D880FF82EFF0CFF0CF80EF20EE1
:1012B00015C08E2D880FE82EEE0CEE0CE80EE20E17
:1012C00010620CC08E3221F416FD6CC1106406C091
:1012D0008C3611F4106802C0883659F4EC85FD850F
:1012E00093FD859193FF8191FD87EC87882309F019
:1012F000B8CF982F9554933018F09052933038F41B
:1013000024E030E0A20EB31E3FE339830FC08336E2
:1013100031F0833781F0833509F05AC022C0F501DE
:101320008081898322E030E0A20EB31E21E0C22E2C
:10133000D12C420114C092E0292E312C2A0C3B1CE6
:10134000F5018080918016FF03C06F2D70E002C010
:101350006FEF7FEFC4010E94FC0A6C0151011F77FF
:1013600015C082E0282E312C2A0C3B1CF501808010
:10137000918016FF03C06F2D70E002C06FEF7FEF0A
:10138000C4010E94F10A6C011068510113FD1CC0D8
:1013900006C080E290E0B3010E94470BEA948E2DD4
:1013A00090E0C816D906A8F30FC0F40117FD859187
:1013B00017FF81914F0190E0B3010E94470BE110AC
:1013C000EA940894C108D108C114D10471F7E7C0A8
:1013D000843611F0893651F5F50117FF07C0808179
:1013E0009181A281B38124E030E008C080819181A5
:1013F000AA2797FDA095BA2F22E030E0A20EB31ED7
:10140000012F0F76B7FF08C0B095A09590958195F4
:101410009F4FAF4FBF4F0068BC01CD01A2012AE032
:1014200030E00E94730BD82ED4183FC0853721F4CA
:101430001F7E2AE030E020C0197F8F36A9F0803768
:1014400020F4883509F0AEC00BC0803721F0883712
:1014500009F0A8C001C0106114FF09C0146007C0E2
:1014600014FF08C0166006C028E030E005C020E187
:1014700030E002C020E132E0F50117FF07C06081D3
:1014800071818281938144E050E006C06081718166
:1014900080E090E042E050E0A40EB51EA2010E9460
:1014A000730BD82ED418012F0F7706FF09C00E7FBB
:1014B000DF1430F404FF06C002FD04C00F7E02C03A
:1014C0001D2D01C01F2D802F90E004FF0CC0FE01D8
:1014D000ED0DF11D2081203311F4097E09C002FFBA
:1014E00006C01E5F05C086789070009709F01F5FE8
:1014F000802E992403FD12C000FF0DC0FD2C1E1587
:1015000050F4FE0CF11A1E2D06C080E290E0B301EB
:101510000E94470B1F5F1E15C0F304C01E1510F478
:10152000E11A01C0EE2484FE0FC080E390E0B30115
:101530000E94470B82FE1FC081FE03C088E590E039
:1015400010C088E790E00DC0C401867890700097C5
:1015500091F081FC02C080E201C08BE207FD8DE2C8
:1015600090E0B3010E94470B06C080E390E0B30116
:101570000E94470BFA94DF14C0F3DA94F201ED0DE8
:10158000F11D808190E0B3010E94470BDD20A9F797
:1015900006C080E290E0B3010E94470BEA94EE207F
:1015A000C1F740CEF3018681978102C08FEF9FEF94
:1015B0002D960FB6F894DEBF0FBECDBFDF91CF9151
:1015C0001F910F91FF90EF90DF90CF90BF90AF9061
:1015D0009F908F907F906F905F904F903F902F9053
:1015E0000895FC010590615070400110D8F7809576
:1015F00090958E0F9F1F0895FC01615070400190DF
:101600000110D8F7809590958E0F9F1F0895CF9366
:10161000DF93EC012B8120FF35C026FF09C02F7B13
:101620002B838E819F8101969F838E838A8128C020
:1016300022FF0FC0E881F9818081992787FD90956D
:10164000009719F420622B831DC03196F983E8833B
:1016500011C0EA85FB85CE01199597FF0BC02B8140
:101660003FEF8F3F930711F480E101C080E2822BAE
:101670008B8308C02E813F812F5F3F4F3F832E8396
:1016800090E002C08FEF9FEFDF91CF9108950F930D
:101690001F93CF93DF938C01EB018B8181FF1BC0E4
:1016A00082FF0DC02E813F818C819D8128173907D3
:1016B00064F4E881F9810193F983E88306C0E88541
:1016C000F985802F1995009731F48E819F810196BD
:1016D0009F838E8302C00FEF1FEFC801DF91CF9170
:1016E0001F910F910895FA01AA27283051F1203156
:1016F00081F1E8946F936E7F6E5F7F4F8F4F9F4FA6
:10170000AF4FB1E03ED0B4E03CD0670F781F891FE7
:101710009A1FA11D680F791F8A1F911DA11D6A0FB5
:10172000711D811D911DA11D20D009F468943F9168
:101730002AE0269F11243019305D3193DEF6CF0167
:101740000895462F4770405D4193B3E00FD0C9F72D
:10175000F6CF462F4F70405D4A3318F0495D31FD9A
:101760004052419302D0A9F7EACFB4E0A6959795ED
:10177000879577956795BA95C9F7009761057105C3
:1017800008959B01AC010A2E06945795479537950D
:101790002795BA95C9F7620F731F841F951FA01D67
:0617A0000895F894FFCF4C
:1017A60025642069732061207072696D65206E75ED
:1017B6006D626572202121210A00636F756E743D8A
:1017C60025640A003E3E20004D494E203A205345EE
:1017D6004300252E3264203A20252E32640A002545
:1017E60064002420002564206973206120707269DA
:1017F6006D65206E756D6265722121210A00636F29
:10180600756E743D25640A0024200020090A0D0027
:101816002121212D313131007072696D65007469A5
:101826006D6572002121212D32323200006C656413
:10183600002121212D333333002121212D3434344D
:10184600002D2D3E25642825642920000000000077
:101856000100000000000049050000000000020031
:101866000000005605000000000000900520000062
:00000001FF
