:100000000C9472000C9494000C9494000C94940042
:100010000C9494000C9494000C9494000C94940010
:100020000C9494000C9494000C9494000C94940000
:100030000C9494000C9494000C9494000C949400F0
:100040000C9494000C9494000C9494000C949400E0
:100050000C9494000C9494000C9494000C949400D0
:100060000C9494000C9494000C9494000C949400C0
:100070000C9494000C9494000C9494000C949400B0
:100080000C9494000C9494000C9494000C949400A0
:100090000C9494000C9494000C9494000C94940090
:1000A0000C9494000C9494000C9494000C94940080
:1000B0000C9494000C9494000C9494000C94940070
:1000C0000C9494000C9494000C9494000C94940060
:1000D0000C9494000C9494000C9494000C94940050
:1000E0000C94940011241FBECFEFD1E2DEBFCDBF30
:1000F00000E00CBF12E0A0E0B2E0EEEEF2E000E0C3
:100100000BBF02C007900D92A030B107D9F71BBEFC
:1001100012E0A0E0B2E001C01D92A130B107E1F70A
:100120000E94CE000C9475010C9400008FEF809318
:100130000B0180930A0180930002089510920B0135
:100140001092000208958FEF80930B0180930002BC
:10015000089521E030E002C0220F331F8A95E2F7B4
:1001600020958091000228232093000220930B0108
:10017000089521E030E002C0220F331F8A95E2F794
:1001800080910002822B8093000280930B010895DE
:1001900080958093000280930B0108950E94960041
:1001A0008FEF9FEBA1E281509040A040E1F700C0AB
:1001B00000000E949E008FEF9FEBA1E281509040D3
:1001C000A040E1F700C000000E94A3008FEF9FEB6A
:1001D000A1E281509040A040E1F700C00000C0E0E3
:1001E0008C2F0E94A9008FEF9FE3ABE081509040DD
:1001F000A040E1F700C00000CF5FC73089F780E082
:100200000E94B9008FEF9FE3ABE081509040A04087
:10021000E1F700C0000082E00E94B9008FEF9FE389
:10022000ABE081509040A040E1F700C0000084E0C6
:100230000E94B9008FEF9FE3ABE081509040A04057
:10024000E1F700C0000086E00E94B9008FEF9FE355
:10025000ABE081509040A040E1F700C000008FEF7C
:100260009FE7A6E181509040A040E1F700C0000068
:1002700080E00E94C80081E00E94C8008FEF9FE3E9
:10028000ABE081509040A040E1F700C0000082E068
:100290000E94C80083E00E94C8008FEF9FE3ABE09C
:1002A00081509040A040E1F700C0000084E00E942F
:1002B000C80085E00E94C8008FEF9FE3ABE081504B
:1002C0009040A040E1F700C0000086E00E94C80016
:1002D00087E00E94C8008FEF9FE3ABE08150904021
:0E02E000A040E1F700C00000FFCFF894FFCF70
:00000001FF
