:100000000C9478000C949A000C949A000C949A002A
:100010000C949A000C949A000C949A000C949A00F8
:100020000C949A000C949A000C949A000C949A00E8
:100030000C949A000C949A000C949A000C949A00D8
:100040000C949A000C949A000C949A000C949A00C8
:100050000C949A000C949A000C949A000C949A00B8
:100060000C949A000C9439020C949A000C940A0295
:100070000C949A000C949A000C949A000C949A0098
:100080000C949A000C949A000C949A000C949A0088
:100090000C949A000C949A000C949A000C949A0078
:1000A0000C949A000C949A000C949A000C949A0068
:1000B0000C949A000C949A000C949A000C949A0058
:1000C0000C949A000C949A000C949A000C949A0048
:1000D0000C949A000C949A000C949A000C949A0038
:1000E0000C949A006364696E6F70737578585B0046
:1000F00011241FBECFEFD1E2DEBFCDBF00E00CBFA9
:1001000012E0A0E0B2E0E4EDF2E100E00BBF02C0DB
:1001100007900D92AA37B107D9F71BBE14E0AAE7E2
:10012000B2E001C01D92AF38B107E1F70E94700242
:100130000C9468090C9400001092850310928403BB
:100140001092830310928203109287031092860309
:1001500010928102109280020895E82F8091860308
:1001600090918703019621E030E040918002509108
:10017000810261E04030560711F020E030E0282392
:1001800039232115310579F460E071E00E94CF0236
:10019000909387038093860388579C4FDC01EC93F0
:1001A00081E090E0089580E090E0089580918002E1
:1001B0009091810220918603309187032817390797
:1001C00079F0019660E071E00E94CF029093810285
:1001D0008093800288579C4FFC01808190E00895B5
:1001E00080E090E00895E82F80918403909185034A
:1001F000019621E030E0409182035091830361E059
:100200004030560711F020E030E028233923211533
:10021000310579F460E071E00E94CF02909385038C
:10022000809384038E579D4FDC01EC9381E090E036
:10023000089580E090E00895809182039091830377
:1002400020918403309185032817390779F00196AE
:1002500060E071E00E94CF02909383038093820359
:100260008E579D4FFC01808190E0089580E090E0E2
:100270000895CF93C82F8A3019F48DE00E94390178
:1002800080918804882331F4C093C60081E0809374
:10029000880404C08C2F90E00E94F300CF91089551
:1002A000CF93C82F8A3019F48DE00E945001F89442
:1002B00080918804882359F4C093C60081E080931C
:1002C00088040BC0789486EF8A95F1F7F8948C2F08
:1002D00090E00E94F3000097A9F3789481E090E009
:1002E000CF910895F8940E94D60078948823D1F392
:1002F000843011F090E008958FEF9FEF08958CE621
:1003000092E090938C0480938B048EE592E090931E
:100310008A0480938904109288040E949C001092A1
:10032000C50087E08093C400E0ECF0E0808182604B
:100330008083E1ECF0E0808188608083808180644C
:10034000808380818061808380818068808308953C
:10035000CF93DF93FC0162E070E00E94CF02EB01DB
:1003600022E030E008C0CF01B9010E94CF0200971F
:1003700041F02F5F3F4FC217D307ACF781E090E009
:1003800002C080E090E0DF91CF910895CF92DF929C
:10039000EF92FF920F931F93CF93DF937C0100E0C6
:1003A00010E0C2E0D0E02AE3C22E22E0D22E16C036
:1003B000CE010E94A801009781F00F5F1F4F00D06F
:1003C0000F92EDB7FEB7D282C182D483C3830E945D
:1003D0002B030F900F900F900F902196EC16FD06B7
:1003E0003CF700D00F9282E592E0EDB7FEB7928322
:1003F0008183148303830E942B030F900F900F902F
:100400000F90DF91CF911F910F91FF90EF90DF90B0
:10041000CF9008951F920F920FB60F920BB60F92C6
:1004200011242F933F934F935F936F937F938F93F9
:100430009F93AF93BF93EF93FF930E941C01882378
:1004400019F41092880402C08093C600FF91EF91C6
:10045000BF91AF919F918F917F916F915F914F91DC
:100460003F912F910F900BBE0F900FBE0F901F90DA
:1004700018951F920F920FB60F920BB60F92112480
:100480002F933F934F935F936F937F938F939F939C
:10049000AF93BF93CF93EF93FF93C091C600C43047
:1004A00039F0CD3009F4CAE08C2F90E00E94390178
:1004B0008C2F90E00E94AD00FF91EF91CF91BF9102
:1004C000AF919F918F917F916F915F914F913F91EC
:1004D0002F910F900BBE0F900FBE0F901F9018958D
:1004E000CF93DF93CDB7DEB7C258D0400FB6F894A4
:1004F000DEBF0FBECDBF0E947F01789480E0E82E62
:1005000082E0F82E94E0C92E92E0D92E8E010D5F84
:100510001F4F5E010894A11CB11C0F920F92ADB742
:10052000BEB71296FC92EE9211970E942B0300D058
:100530000F92EDB7FEB73196ADB7BEB71296DC920B
:10054000CE92119713830283B582A4820E946B031B
:10055000EDB7FEB736960FB6F894FEBF0FBEEDBFEF
:1005600097FD18C0C8016AE072E00E94F602009789
:10057000A1F2C8016FE072E00E94FB02009729F42B
:1005800089819A810E94C601C8CF85E192E00E94CC
:100590003D03C3CF88E292E00E943D03FFCF97FB6B
:1005A000092E07260AD077FD04D00CD006D00020F3
:1005B0001AF4709561957F4F0895F6F7909581959F
:1005C0009F4F0895AA1BBB1B51E107C0AA1FBB1F69
:1005D000A617B70710F0A61BB70B881F991F5A95CF
:1005E000A9F780959095BC01CD0108954EE752E0A2
:1005F0000E9404030895FB01DC018D910190801994
:100600000110D9F3990B0895FA01A191B0810097D7
:1006100019F41097E1F0CD01DC01CD010D9000201F
:1006200011F4C00113C0FB012191222319F0201500
:10063000D9F7F3CFFB012191201519F41E921196E1
:1006400006C02223C1F70D900020A1F7D001FA01C6
:10065000A193B0830895CF93DF93CDB7DEB7FE01AA
:1006600036966191719180918B0490918C04AF01C9
:100670000E947D03DF91CF9108950F931F93CF9335
:10068000DF938C01E0918B04F0918C04838181FFD6
:100690001AC0C0E0D0E005C01995009711F0CFEF67
:1006A000DFEFF80181918F0160918B0470918C04D0
:1006B000DB011896ED91FC911997882369F78AE080
:1006C0001995009711F0CFEFDFEFCE01DF91CF91B9
:1006D0001F910F910895CF93DF93CDB7DEB7FE0141
:1006E0003696619171918091890490918A04AF014D
:1006F0000E942807DF91CF9108952F923F924F9249
:100700005F926F927F928F929F92AF92BF92CF92A1
:10071000DF92EF92FF920F931F93CF93DF93CDB7AA
:10072000DEB72D970FB6F894DEBF0FBECDBF3C01EC
:100730007D876C875A01FC0117821682838181FFB5
:10074000C8C12E010894411C511CF3019381EC8512
:10075000FD8593FD859193FF8191FD87EC8788232B
:1007600009F4B3C1853241F493FD859193FF8191E2
:10077000FD87EC87853229F490E0B3010E94BE0822
:10078000E4CFFF24EE2410E01032B0F48B3269F095
:100790008C3228F4803251F0833271F40BC08D32E8
:1007A00039F0803349F411602CC01260146029C004
:1007B000186027C0106125C017FD2EC0282F2053B8
:1007C0002A3098F416FF08C08F2D880FF82EFF0CE2
:1007D000FF0CF80EF20E15C08E2D880FE82EEE0CD1
:1007E000EE0CE80EE20E10620CC08E3221F416FD03
:1007F0006CC1106406C08C3611F4106802C08836D3
:1008000059F4EC85FD8593FD859193FF8191FD87DA
:10081000EC87882309F0B8CF982F9554933018F0BF
:100820009052933038F424E030E0A20EB31E3FE340
:1008300039830FC0833631F0833781F0833509F077
:100840005AC022C0F5018081898322E030E0A20EE7
:10085000B31E21E0C22ED12C420114C092E0292EF9
:10086000312C2A0C3B1CF5018080918016FF03C0BF
:100870006F2D70E002C06FEF7FEFC4010E9473081C
:100880006C0151011F7715C082E0282E312C2A0CF3
:100890003B1CF5018080918016FF03C06F2D70E036
:1008A00002C06FEF7FEFC4010E9468086C011068FE
:1008B000510113FD1CC006C080E290E0B3010E940C
:1008C000BE08EA948E2D90E0C816D906A8F30FC092
:1008D000F40117FD859117FF81914F0190E0B3015D
:1008E0000E94BE08E110EA940894C108D108C1141E
:1008F000D10471F7E7C0843611F0893651F5F5015E
:1009000017FF07C080819181A281B38124E030E08C
:1009100008C080819181AA2797FDA095BA2F22E077
:1009200030E0A20EB31E012F0F76B7FF08C0B095BE
:10093000A095909581959F4FAF4FBF4F0068BC0128
:10094000CD01A2012AE030E00E940709D82ED41878
:100950003FC0853721F41F7E2AE030E020C0197F98
:100960008F36A9F0803720F4883509F0AEC00BC06F
:10097000803721F0883709F0A8C001C0106114FF4A
:1009800009C0146007C014FF08C0166006C028E044
:1009900030E005C020E130E002C020E132E0F501A6
:1009A00017FF07C0608171818281938144E050E02C
:1009B00006C06081718180E090E042E050E0A40ECA
:1009C000B51EA2010E940709D82ED418012F0F7757
:1009D00006FF09C00E7FDF1430F404FF06C002FDDD
:1009E00004C00F7E02C01D2D01C01F2D802F90E07E
:1009F00004FF0CC0FE01ED0DF11D2081203311F428
:100A0000097E09C002FF06C01E5F05C0867890708F
:100A1000009709F01F5F802E992403FD12C000FF8C
:100A20000DC0FD2C1E1550F4FE0CF11A1E2D06C033
:100A300080E290E0B3010E94BE081F5F1E15C0F364
:100A400004C01E1510F4E11A01C0EE2484FE0FC08C
:100A500080E390E0B3010E94BE0882FE1FC081FEC9
:100A600003C088E590E010C088E790E00DC0C401A5
:100A700086789070009791F081FC02C080E201C0FE
:100A80008BE207FD8DE290E0B3010E94BE0806C034
:100A900080E390E0B3010E94BE08FA94DF14C0F333
:100AA000DA94F201ED0DF11D808190E0B3010E9416
:100AB000BE08DD20A9F706C080E290E0B3010E94E5
:100AC000BE08EA94EE20C1F740CEF30186819781FB
:100AD00002C08FEF9FEF2D960FB6F894DEBF0FBECA
:100AE000CDBFDF91CF911F910F91FF90EF90DF90DD
:100AF000CF90BF90AF909F908F907F906F905F90BE
:100B00004F903F902F90089520FD09C0FC0123FDD8
:100B100005C022FF02C0738362835183408308951E
:100B2000CF92DF92EF92FF926B017C0144FD10C0E7
:100B300046FD10C0D601F701AA0FBB1FEE1FFF1F15
:100B40001094D1F7CA0EDB1EEE1EFF1E81E003C01B
:100B500083E001C084E0CC0CDD1CEE1CFF1C815046
:100B6000D1F7C20ED11CE11CF11CB601C701FF90E8
:100B7000EF90DF90CF9008950F931F93CF93DF9363
:100B80008C01C8010E947E08EC0197FD08C00E94FC
:100B900055080097B1F7CE01B8010E94EA08CE01CE
:100BA000DF91CF911F910F910895AF92BF92CF9295
:100BB000DF92EF92FF920F931F93CF93DF938C01FD
:100BC000D62F5A01C22F0E947E088B3219F08D3227
:100BD00049F4C068D15009F461C0C8010E947E0880
:100BE00097FD5CC0CD7F2C2F2073D1F48033C1F4EE
:100BF000D15009F43EC0C8010E947E0897FD39C05B
:100C0000C260883711F0883549F4C064D15089F149
:100C1000C8010E947E0897FF03C02BC0C6FFC061B9
:100C2000CC24DD247601282F2053283080F0C4FD09
:100C300009C02A3060F0C6FF05C02F7D322F315128
:100C4000363020F0B8010E94EA0810C02750C701D2
:100C5000B6014C2F0E9490056B017C01C260D150FF
:100C600059F0C8010E947E0897FFDDCFC1FD04C086
:100C700015C0CC24DD247601C7FF08C0F094E094B1
:100C8000D094C094C11CD11CE11CF11CC501B7015A
:100C9000A6012C2F0E94840581E001C080E0DF9135
:100CA000CF911F910F91FF90EF90DF90CF90BF9069
:100CB000AF9008954F925F926F927F928F929F9222
:100CC000AF92BF92CF92DF92EF92FF920F931F935A
:100CD000CF93DF93CDB7DEB7A0970FB6F894DEBF02
:100CE0000FBECDBF5C01062F7A016901FE0131966E
:100CF00080E2DF011D928A95E9F7D50113961C91D8
:100D0000139760E070E020E040E030E04F0181E0C8
:100D1000682E712CF60113FD559113FF51916F014F
:100D2000552309F47BC05E3519F46115710549F14D
:100D3000832F90E0861797073CF45D3551F15D32C3
:100D400019F4442301F103C0442309F4252F852F0E
:100D5000869586958695F401E80FF11D852F87709D
:100D6000230102C0440C551C8A95E2F78081842936
:100D70008083521751F0521710F45F5FE8CF515043
:100D8000E6CF31E003C041E001C040E06F5F7F4F3C
:100D9000C1CF442319F08E8180628E83332351F0BA
:100DA000FE013196CE018196208120952193E8178E
:100DB000F907D1F711E001C010E0C5010E947E08DB
:100DC0009C0197FD23C0869586958695E1E0F0E02D
:100DD000EC0FFD1FE80FF11D408150E0C901877045
:100DE000907002C0559547958A95E2F740FD05C081
:100DF000C901B5010E94EA0809C0E114F10419F023
:100E0000D7012D937D010150B9F602C0112331F4B1
:100E1000E114F10429F0F701108202C0CC24DD2492
:100E2000C601A0960FB6F894DEBF0FBECDBFDF910E
:100E3000CF911F910F91FF90EF90DF90CF90BF90D7
:100E4000AF909F908F907F906F905F904F9008959C
:100E50005F926F927F928F929F92AF92BF92CF924A
:100E6000DF92EF92FF920F931F93CF93DF930F9236
:100E7000CDB7DEB77C015B013A01FC011782168217
:100E80009924EFC0812F90E00E945508009721F02F
:100E9000C7010E94BC05E5C0153241F4F50103FD10
:100EA000359103FF31915F01353261F4C7010E9432
:100EB0007E0897FDE2C0181709F4D3C0B7010E945D
:100EC000EA08DDC03A3241F403FD359103FF319168
:100ED0005F015524539401C05524882410C0F2E0CA
:100EE0005F2A682D70E080E090E040E20E9490056B
:100EF000862EF50103FD359103FF31915F01232F0C
:100F000020532A3060F351FE03C0882019F4B7C083
:100F100088248A94383619F03C3699F40AC0F501D1
:100F200003FD359103FF31915F01383651F4F8E04C
:100F30005F2A44E0542AF50103FD359103FF319106
:100F40005F01332309F49BC084EE90E0632F70E0CF
:100F500039830E945D083981009709F490C0852D7E
:100F600050FC08C0F3010081118142E050E0640EA2
:100F7000751E02C000E010E03E3651F4F7014681D4
:100F8000578160E070E0C801252D0E94840569C08A
:100F9000333691F481FD02C088248394C7010E94F6
:100FA0007E0897FD6AC00115110519F0F8018193BB
:100FB0008F018A9499F753C0C7013B3551F4682DCE
:100FC000A80195010E945A065C01009709F047C0EC
:100FD00041C039830E94BC05398197FD4EC03F3620
:100FE00061F1303728F4343629F1393649F52AC011
:100FF000333719F0353721F51DC0C7010E947E082F
:101000006C0197FD11C00E945508009729F0C60198
:10101000B7010E94EA0808C00115110519F0F8018E
:10102000C1928F018A9449F701151105C1F0F801A9
:10103000108215C0F0E25F2A05C040E1542A02C0C8
:1010400050E4552AC701682DA801252D0E94D50519
:10105000882329F4F7018381807379F410C050FE4E
:101060009394F7010381F50103FD159103FF11919D
:101070005F01112309F006CF02C0992019F0892DD4
:1010800090E002C08FEF9FEF0F90DF91CF911F9103
:101090000F91FF90EF90DF90CF90BF90AF909F9017
:1010A0008F907F906F905F90089591110EC1803264
:1010B00019F089508550D0F70895FC010590061667
:1010C00021F00020D9F7C00108953197CF0108958C
:1010D000FC010590615070400110D8F78095909503
:1010E0008E0F9F1F0895FC01615070400190011008
:1010F000D8F7809590958E0F9F1F0895CF93DF931B
:10110000EC012B8120FF35C026FF09C02F7B2B83EC
:101110008E819F8101969F838E838A8128C022FFC2
:101120000FC0E881F9818081992787FD909500970C
:1011300019F420622B831DC03196F983E88311C016
:10114000EA85FB85CE01199597FF0BC02B813FEFF8
:101150008F3F930711F480E101C080E2822B8B83E3
:1011600008C02E813F812F5F3F4F3F832E8390E049
:1011700002C08FEF9FEFDF91CF9108950F931F93E0
:10118000CF93DF938C01EB018B8181FF1BC082FF2A
:101190000DC02E813F818C819D812817390764F411
:1011A000E881F9810193F983E88306C0E885F98530
:1011B000802F1995009731F48E819F8101969F832E
:1011C0008E8302C00FEF1FEFC801DF91CF911F91F7
:1011D0000F910895FB01238120FF13C026FD11C04C
:1011E0003FEF8F3F930781F08283922F90649F7D22
:1011F000938326813781215030403783268390E0C6
:1012000008958FEF9FEF08958FEF9FEF0895FA01F4
:10121000AA27283051F1203181F1E8946F936E7F35
:101220006E5F7F4F8F4F9F4FAF4FB1E03ED0B4E026
:101230003CD0670F781F891F9A1FA11D680F791F67
:101240008A1F911DA11D6A0F711D811D911DA11D78
:1012500020D009F468943F912AE0269F1124301988
:10126000305D3193DEF6CF010895462F4770405D23
:101270004193B3E00FD0C9F7F6CF462F4F70405DD2
:101280004A3318F0495D31FD4052419302D0A9F72D
:10129000EACFB4E0A6959795879577956795BA9527
:1012A000C9F700976105710508959B01AC010A2EED
:1012B00006945795479537952795BA95C9F7620FC4
:1012C000731F841F951FA01D0895992788270895CF
:0412D000F894FFCFC0
:1012D400242020002573202564000A0D09200070B5
:1012E40072696D6500556E6B6E6F776E20636F6DFE
:1012F4006D616E642E2E2E006C6F676F75742C6793
:101304006F6F642062796521210025642069732050
:1013140061207072696D65206E756D626572212140
:101324000A00636F756E74203D2025640A00000076
:101334000001000000000000720100000000000233
:0A134400000000005001000000004E
:00000001FF
