:100000000C9472000C9494000C9494000C94940042
:100010000C9494000C9494000C9494000C94940010
:100020000C9494000C9494000C9494000C94940000
:100030000C9494000C9494000C9494000C94E4059B
:100040000C9494000C9494000C9494000C949400E0
:100050000C9494000C9494000C9494000C949400D0
:100060000C9494000C94B5060C9494000C948606A1
:100070000C9494000C94AB000C9494000C94940099
:100080000C9494000C9494000C9494000C949400A0
:100090000C9494000C9494000C9494000C94940090
:1000A0000C9494000C9494000C9494000C94940080
:1000B0000C9494000C9494000C9494000C94940070
:1000C0000C9494000C9494000C9494000C94940060
:1000D0000C9494000C9494000C9494000C94940050
:1000E0000C94940011241FBECFEFD1E2DEBFCDBF30
:1000F00000E00CBF14E0A0E0B2E0E0E7F0E200E0D6
:100100000BBF02C007900D92A032B107D9F71BBEFA
:1001100016E0A0E2B4E001C01D92A03EB107E1F7F5
:100120000E94640A0C9436100C940000809880E8B9
:1001300080937C000895EAE7F0E080818068808306
:100140008DED90E00197F1F7808188608083808158
:100150008064808308951F920F920FB60F920BB6A2
:100160000F9211242F933F934F935F936F937F933D
:100170008F939F93AF93BF93EF93FF93CF93DF93AF
:10018000CDB7DEB72A97DEBFCDBF809178009091C2
:100190007900EAE7F0E020812F7720832DED33E02E
:1001A0003A83298300D000D0EDB7FEB731969E0187
:1001B0002D5F3F4FADB7BEB712963C932E9311976C
:1001C00020E032E0338322839370958384830E94FE
:1001D000200D8DB79EB706960FB6F8949EBF0FBE42
:1001E0008DBFCE0101960E9468032A96DEBFCDBF67
:1001F000DF91CF91FF91EF91BF91AF919F918F913F
:100200007F916F915F914F913F912F910F900BBE16
:100210000F900FBE0F901F901895CF93DF93FC01A6
:1002200062E070E00E94900AEB0122E030E008C03A
:10023000CF01B9010E94900A009741F02F5F3F4F14
:10024000C217D307ACF781E090E002C080E090E0F5
:10025000DF91CF910895CF92DF92EF92FF920F93AB
:100260001F93CF93DF93009719F00E941D0C6C0130
:1002700000E010E0C2E0D0E083E0E82E82E0F82E5B
:1002800016C0CE010E940D01009781F00F5F1F4F35
:1002900000D00F92EDB7FEB7F282E182D483C38320
:1002A0000E94D90C0F900F900F900F902196CC16B2
:1002B000DD063CF700D00F928DE192E0EDB7FEB77E
:1002C00092838183148303830E94D90C0F900F9033
:1002D0000F900F90DF91CF911F910F91FF90EF90B2
:1002E000DF90CF90089508950F931F93CF93DF93DE
:1002F000CDB7DEB762970FB6F894DEBF0FBECDBFA5
:1003000007E212E00F920F92EDB7FEB7128301835E
:100310000E94D90C0F900F904091DA065091DB06A5
:10032000CE01019668E070E00E947F0C009761F0BA
:10033000CE0101960E941D0CBC01009729F0CE0150
:1003400009960E943F05DECF0E94E7040E9429051E
:1003500062960FB6F894DEBF0FBECDBFDF91CF918E
:100360001F910F910895CF93DF938BE292E00E944B
:10037000F20C8091290490912A04E0912904F091D3
:100380002A0400D000D0CDB7DEB7219625E332E0B5
:10039000ADB7BEB712963C932E9311972CE330E085
:1003A000B9010E94900A7B836A83CF01B9010E9440
:1003B000900A9D838C830E94D90C8DB79EB70696B8
:1003C0000FB6F8949EBF0FBE8DBFDF91CF910895F9
:1003D0008FEF80930B0180930A01089510920B0117
:1003E0001092200408958FEF80930B0180932004D6
:1003F00008950F931F93CF93DF93CDB7DEB72A975E
:100400000FB6F894DEBF0FBECDBF009741F0DC0100
:100410002C91222321F00E941D0C8C0102C000E0CF
:1004200014E18091210490912204009739F00E94F8
:10043000EE01109222041092210408C00E94F301E0
:1004400081E090E0909322048093210489EF91E071
:100450009A83898300D000D0EDB7FEB73196CE01E4
:100460000396ADB7BEB712969C938E93119782E414
:1004700092E093838283158304830E94200DEDB75D
:10048000FEB736960FB6F894FEBF0FBEEDBFC8019B
:1004900060E071E00E94900ACE0101960E943F0543
:1004A0002A960FB6F894DEBF0FBECDBFDF91CF9175
:1004B0001F910F91089521E030E002C0220F331FF9
:1004C0008A95E2F720958091200428232093200428
:1004D00020930B01089521E030E002C0220F331F6A
:1004E0008A95E2F780912004822B809320048093E8
:1004F0000B01089580958093200480930B0108954B
:1005000010923205109231051092300510922F058D
:10051000109234051092330510922E0410922D047F
:100520000895482F20913305309134052F5F3F4FB8
:10053000C90160E071E00E94900A9C0180912D0445
:1005400090912E042817390759F0309334052093E1
:1005500033052B5C3A4FF901408381E090E0089528
:1005600080E090E0089580912D0490912E042091D8
:100570003305309134052817390779F0019660E08A
:1005800071E00E94900A90932E0480932D048B5C5E
:100590009A4FFC01808190E0089580E090E00895FA
:1005A000482F20913105309132052F5F3F4FC9010F
:1005B00060E071E00E94900A9C0180912F0590916B
:1005C00030052817390759F030933205209331054B
:1005D000215D3B4FF901408381E090E0089580E088
:1005E00090E0089580912F0590913005209131057C
:1005F000309132052817390779F0019660E071E0F3
:100600000E94900A9093300580932F05815D9B4F47
:10061000FC01808190E0089580E090E00895CF9201
:10062000DF92EF92FF920F931F93CF93DF93009788
:1006300041F0FC012081222321F00E941D0C8C013D
:1006400002C000ED17E0C2E0D0E0EE24FF2488E411
:10065000C82E82E0D82E17C0CE010E940D0100974F
:1006600089F00894E11CF11C00D00F92EDB7FEB7A1
:10067000D282C182D483C3830E94D90C0F900F9081
:100680000F900F9021960C171D0734F700D00F9292
:1006900081E692E0EDB7FEB792838183F482E38234
:1006A0000E94D90C0F900F900F900F90DF91CF9177
:1006B0001F910F91FF90EF90DF90CF9008951092CF
:1006C00028041092270410922C0410922B040895F1
:1006D000CF93DF93482FE92F80912704909128042E
:1006E000C0912B04D0912C04019620E130E0B90197
:1006F0000E94900A8C179D0731F1809127049091F8
:1007000028040196B9010E94900A909328048093CE
:1007100027048091270490912804DC01AA0FBB1FB5
:1007200063E0880F991F6A95E1F7A80FB91FAB5CCA
:10073000B94FC42FDE2F8AE009900D928150E1F766
:1007400081E090E002C080E090E0DF91CF910895D9
:100750009C01409127045091280480912B04909192
:100760002C044817590731F180912B0490912C04E7
:10077000019660E170E00E94900A90932C048093AF
:100780002B0480912B0490912C04FC01EE0FFF1F91
:10079000A3E0880F991FAA95E1F7E80FF91FD90187
:1007A000EB5CF94F8AE001900D928150E1F781E016
:1007B00090E0089580E090E00895CF93DF93EC01FE
:1007C0008881882319F40E949B0044C0CE010E94B6
:1007D0001D0C00D00F922BE632E0EDB7FEB732834E
:1007E0002183948383830E94D90C0F900F900F90E4
:1007F0000F90CE010E941D0C9C01B901882777FD46
:100800008095982F0E9409082DEC3CEC4CE85AE3A7
:100810000E94080720E030E04AE754E40E940807FD
:100820000E948008DC01CB01845F914000D00F92D0
:1008300026E732E0EDB7FEB7328321836AE070E04D
:100840000E94900A748363830E94D90C0F900F90CA
:100850000F900F90DF91CF910895AF92BF92CF92FA
:10086000DF92EF92FF920F931F93CF93DF93CDB759
:10087000DEB7CA54D0400FB6F894DEBF0FBECDBF6E
:10088000CE010B960E94B30C009729F1CE010B9676
:100890006CEA72E00E943B0C8C0180E090E06CEA14
:1008A00072E00E943B0C7C0180E090E06CEA72E018
:1008B0000E943B0C5C0180E090E06CEA72E00E94D8
:1008C0003B0C6C010115110599F481EB92E00E943B
:1008D000F20C0E94E7040F920F9289EA92E0EDB7C2
:1008E000FEB7928381830E94D90C0F900F905DC058
:1008F000C80169EB72E00E94400C009721F4C70127
:100900000E940F0352C0C8016FEB72E00E94400CBE
:10091000009729F487EC92E00E94DD0346C0C801ED
:1009200068EC72E00E94400C0097D9F5E114F104E4
:1009300029F48EEC92E00E94F20CCDCFC7010E9408
:100940001D0C60E071E00E94900A8B01C50169EB0B
:1009500072E00E94400C009719F48FE093E009C008
:10096000C50166ED72E00E94400C0097B9F489EF72
:1009700091E09A838983CE010396C114D10411F0CA
:10098000B60102C067EC72E00E94490CF894CE01F7
:100990000196B8010E943F05789407C08AED92E065
:1009A00002C082EE92E00E94F20CC65BDF4F0FB6EF
:1009B000F894DEBF0FBECDBFDF91CF911F910F9195
:1009C000FF90EF90DF90CF90BF90AF900895EF929F
:1009D000FF920F931F93CF93DF938AE090E00E94E2
:1009E000EB0CC0912304D091240400E010E08AEEC7
:1009F000E82E82E0F82E20C088819981080F191F07
:100A000000D000D0EDB7FEB73196ADB7BEB71296A5
:100A1000FC92EE92119793838283158304830E9444
:100A2000D90C0C84DD85C02D8DB79EB706960FB608
:100A3000F8949EBF0FBE8DBF2097F1F68AE090E03C
:100A40000E94EB0CDF91CF911F910F91FF90EF90DF
:100A5000089509C0FC012485358530932404209332
:100A600023040E94840B8091230490912404009716
:100A700089F708958EE090E00E94EE0A0895EF92C3
:100A8000FF920F931F93CF93DF93F82EE92E8B01E4
:100A90000E943A05EC01DC011296EF2DFE2D8AE052
:100AA00001900D928150E1F719830883E0912304AE
:100AB000F0912404309729F4D0932404C0932304A4
:100AC0002FC040E050E020E030E001C0FD01808117
:100AD0009181280F391F2017310734F4A485B5857B
:100AE000AF01109799F701C0DF014115510579F465
:100AF0008D919C911197801B910B11969C938E93D5
:100B0000BD87AC87D0932404C093230424C01097DE
:100B100051F4021B130B19830883FA01D587C4878C
:100B20001D861C8618C08D919C911197B901681B78
:100B3000790B9801261B370B398328838D919C9163
:100B40001197821B930B11969C938E93FA01D58774
:100B5000C487BD87AC87DF91CF911F910F91FF9024
:100B6000EF9008951092B200E6EBF0E08081806291
:100B70008083E0E7F0E0808181608083E1EBF0E05A
:100B80008081816080838081826080830895CF939B
:100B9000DF930DC08C859D8590932404809323045E
:100BA000CE0102960E946803CE010E94840BC09180
:100BB0002304D0912404209721F088819981009703
:100BC00049F3DF91CF9108951F920F920FB60F92C4
:100BD0000BB60F9211242F933F934F935F936F9314
:100BE0007F938F939F93AF93BF93EF93FF93E09186
:100BF0002304F0912404309749F08081918101977A
:100C000091838083009711F40E94C705FF91EF91B3
:100C1000BF91AF919F918F917F916F915F914F9114
:100C20003F912F910F900BBE0F900FBE0F901F9012
:100C30001895F8940E94B30278948823D1F38430F5
:100C400011F090E008958FEF9FEF0895CF93C82F94
:100C50008A3019F48DE00E942606F8948091D5061A
:100C6000882359F4C093C60081E08093D5060AC05A
:100C7000789486EF8A95F1F7F8948C2F0E94D00231
:100C80000097B1F3789481E090E0CF91089586EFDA
:100C900092E09093DB068093DA0684E093E09093F1
:100CA000DD068093DC060E9480021092D506109229
:100CB000C50087E08093C400E0ECF0E080818260B2
:100CC0008083E1ECF0E080818860808380818064B3
:100CD00080838081806180838081806880830895A3
:100CE000CF93C82F8A3019F48DE00E94700680914E
:100CF000D506882331F4C093C60081E08093D506E1
:100D000003C08C2F0E94D002CF9108951F920F92A2
:100D10000FB60F920BB60F9211242F933F934F9360
:100D20005F936F937F938F939F93AF93BF93EF9353
:100D3000FF930E94F202882319F41092D50602C094
:100D40008093C600FF91EF91BF91AF919F918F91DA
:100D50007F916F915F914F913F912F910F900BBEBB
:100D60000F900FBE0F901F9018951F920F920FB605
:100D70000F920BB60F9211241F932F933F934F9313
:100D80005F936F937F938F939F93AF93BF93EF93F3
:100D9000FF93CF93DF93CDB7DEB72A97DEBFCDBFEA
:100DA0001091C600143031F01D3009F41AE0812F83
:100DB0000E947006812F0E949102143011F01A30A7
:100DC00071F48DE294E09A838983CE01039665EFF6
:100DD00072E00E94490CCE0101960E9468032A9697
:100DE000DEBFCDBFDF91CF91FF91EF91BF91AF916A
:100DF0009F918F917F916F915F914F913F912F9133
:100E00001F910F900BBE0F900FBE0F901F90189563
:100E1000A0E2B0E0EEE0F7E00C94B90ADC01CB010F
:100E20008D839E83AF83B88729833A834B835C830A
:100E3000CE010596BE01675E7F4F0E94FB09CE0181
:100E40000196BE016F5E7F4F0E94FB09998D923023
:100E500078F089898230C0F0943019F4823041F4FE
:100E6000CAC0843019F4923079F4C5C0923051F47C
:100E700081E02A8D9A89291709F480E08A8FCE01B2
:100E80004996BBC0823051F481E02A8D9A89291796
:100E900009F480E08A8BCE014196AFC04D8C5E8C08
:100EA0006F8C78A00D891E892F89388DE0E2F0E0E3
:100EB00040E050E0BA01882499245401CC24DD2478
:100EC0007601C201817090700097D1F0C00ED11EE2
:100ED000E21EF31EDB01CA01880D991DAA1DBB1D70
:100EE00041E050E060E070E0C016D106E206F30693
:100EF00018F040E050E0BA01480F591F6A1F7B1FED
:100F0000880C991CAA1CBB1C37FF08C081E090E02C
:100F1000A0E0B0E0882A992AAA2ABB2A000F111F54
:100F2000221F331F7694679457944794319749F65C
:100F30008B8D9C8D2B893C89820F931F02969C87F9
:100F40008B8781E02A8D9A89291709F480E08A87A6
:100F50002B853C8517C0CA0181709070009761F0A5
:100F6000F694E794D794C79480E090E0A0E0B0E8CE
:100F7000C82AD92AEA2AFB2A769567955795479574
:100F80002F5F3F4F77FDE7CFC9010BC0440F551FBF
:100F9000661F771FF7FC4160CC0CDD1CEE1CFF1CAC
:100FA00001974030A0E05A07A0E06A07A0E47A0762
:100FB00068F38B879C87DB01CA018F779070A070E4
:100FC000B07080349105A105B10561F447FD0AC0F8
:100FD000C114D104E104F10429F0405C5F4F6F4F6C
:100FE0007F4F40784D875E876F87788B83E0898756
:100FF000CE01099602C082E193E00E942409462FA7
:10100000572F682F792FCB01BA01A096E0E10C94FD
:10101000D50ACF92DF92EF92FF92CF93DF93CDB7B5
:10102000DEB728970FB6F894DEBF0FBECDBF6B01B9
:101030007C0183E08983D701C6018827B7FD8395AA
:101040009927AA27BB27282F8A83C114D104E1043A
:10105000F10419F482E0898335C08EE190E09C832D
:101060008B83222389F080E0C81680E0D80680E0D8
:10107000E80680E8F80659F1F094E094D094C09422
:10108000C11CD11CE11CF11CCD82DE82EF82F886EE
:10109000C701B6010E94D10801971816190694F4E9
:1010A000082E04C0CC0CDD1CEE1CFF1C0A94D2F7E9
:1010B000CD82DE82EF82F8862EE130E0281B390BEC
:1010C0003C832B83CE0101960E94240904C060E07A
:1010D00070E080E09FEC382F292F862F972FA32FC9
:1010E000B22FBC01CD0128960FB6F894DEBF0FBE1B
:1010F000CDBFDF91CF91FF90EF90DF90CF9008951B
:10110000ACE0B0E0E6E8F8E00C94C50ADC01CB0105
:1011100089839A83AB83BC83CE010196BE016B5F4A
:101120007F4F0E94FB098D81823069F1823058F136
:10113000843039F02F81388537FD25C02F313105B6
:1011400044F08E81882319F100E010E020E030E8BF
:1011500022C08EE190E0821B930B09851A852B85B6
:101160003C8504C036952795179507958A95D2F743
:101170008E81882381F030952095109501951F4F21
:101180002F4F3F4F08C000E010E0980104C00FEF60
:101190001FEF2FEF3FE7B801C9012C96E4E00C9454
:1011A000E10ACF92DF92EF92FF920F931F938B0190
:1011B0009C01003080E0180781E0280780E03807B4
:1011C00050F40F3F11052105310509F088F480E046
:1011D00090E0DC0116C00030E0E01E07E0E02E07E2
:1011E000E1E03E0750F480E190E0A0E0B0E009C00B
:1011F00088E090E0A0E0B0E004C088E190E0A0E0EA
:10120000B0E040E250E060E070E0481B590B6A0B30
:101210007B0B6801790104C0F694E794D794C794D6
:101220008A95D2F7D701C601865E9C4FFC0180816A
:10123000481B510961097109CA011F910F91FF9063
:10124000EF90DF90CF900895CF92DF92EF92FF92D0
:101250000F931F93DC0114964D915D916D917C91DC
:1012600017971196EC9111978C91823020F4606160
:101270008FEF90E0A5C0843009F49DC0823009F45E
:1012800094C0411551056105710509F491C012968C
:101290008D919C9113972FEF823892070CF059C0D3
:1012A00022E83FEF281B390B2A31310564F56A012A
:1012B0007B01022E04C0F694E794D794C7940A9455
:1012C000D2F781E090E0A0E0B0E004C0880F991F61
:1012D000AA1FBB1F2A95D2F70197A109B109842340
:1012E0009523A623B72341E050E060E070E000972B
:1012F000A105B10519F440E050E0BA014C295D297F
:101300006E297F2903C040E050E0BA01DB01CA0129
:101310008F779070A070B07080349105A105B105F1
:1013200039F447FF09C0405C5F4F6F4F7F4F04C0E7
:10133000415C5F4F6F4F7F4F81E090E0403020E095
:10134000520720E0620720E4720738F580E090E061
:1013500024C0803891057CF58A019B010F771070BD
:1013600020703070003411052105310539F447FF34
:1013700009C0405C5F4F6F4F7F4F04C0415C5F4FBF
:101380006F4F7F4F77FD03C081589F4F06C0769502
:1013900067955795479580589F4F97E07695679545
:1013A000579547959A95D1F70BC080E090E005C01E
:1013B00080E090E005C08FEF90E040E050E0BA019F
:1013C000982F979599279795A62FAF77E795EE27B2
:1013D000E79586953A2F392B282F2E2B842F952F82
:1013E000A32FB22FBC01CD011F910F91FF90EF9061
:1013F000DF90CF900895DC01FB014C9111965C9138
:10140000119712968C911297682F6F7770E0982F32
:10141000991F9927991F13962C911397822F880F44
:10142000892B90E0221F2227221F2183009739F564
:10143000411551056105710511F482E029C082E86A
:101440009FEF9383828327E0440F551F661F771F0A
:101450002A95D1F783E0808309C0440F551F661F8A
:10146000771F82819381019793838283403080E04C
:10147000580780E0680780E4780778F320C08F3F42
:10148000910579F4411551056105710519F484E060
:101490008083089564FF03C081E0808310C01082C0
:1014A0000EC08F5790409383828383E0808387E0D0
:1014B000440F551F661F771F8A95D1F770644483C8
:1014C0005583668377830895CF93DF93CDB7DEB7D7
:1014D0002A970FB6F894DEBF0FBECDBF0E94E80179
:1014E0000E9447060E945F030E94B2050F920F926E
:1014F00085E492E0EDB7FEB7928381830E94D90C18
:101500000F900F90F894CE0101960E94A803789452
:101510000097C1F3E981FA81CE0103961995F2CFC4
:1015200097FB092E07260AD077FD04D00CD006D0F1
:1015300000201AF4709561957F4F0895F6F7909505
:1015400081959F4F0895AA1BBB1B51E107C0AA1F9D
:10155000BB1FA617B70710F0A61BB70B881F991F54
:101560005A95A9F780959095BC01CD0108952F92C9
:101570003F924F925F926F927F928F929F92AF9223
:10158000BF92CF92DF92EF92FF920F931F93CF9370
:10159000DF93CDB7DEB7CA1BDB0B0FB6F894DEBF07
:1015A0000FBECDBF19942A88398848885F846E841D
:1015B0007D848C849B84AA84B984C884DF80EE8077
:1015C000FD800C811B81AA81B981CE0FD11D0FB680
:1015D000F894DEBF0FBECDBFED010895CF93DF932A
:1015E000AC018230910510F442E050E0E091D80661
:1015F000F091D90620E030E0A0E0B0E024C0808186
:10160000918184179507D0F08417950771F4828132
:101610009381109729F013969C938E9312972CC068
:101620009093D9068093D80627C02115310519F06B
:101630008217930718F49C01BD01EF019281838109
:10164000DF01E92FF82F3097D1F621153105F9F098
:10165000C901841B950B8430910580F48A819B819C
:101660006115710521F0FB019383828304C090937F
:10167000D9068093D806FE01329642C0FE01E80FDB
:10168000F91F4193519302979983888339C08091C0
:10169000D6069091D706009741F480911C04909152
:1016A0001D049093D7068093D60620911A0430919A
:1016B0001B042115310541F42DB73EB780911E045E
:1016C00090911F04281B390BE091D606F091D706A4
:1016D000E217F30798F42E1B3F0B2417350770F021
:1016E000CA0102962817390748F08E0F9F1F909362
:1016F000D7068093D6064193519302C0E0E0F0E014
:10170000CF01DF91CF9108950F931F93CF93DF9374
:101710009C01009709F48CC0DC01129713961C926F
:101720001E9212976091D8067091D90661157105C5
:1017300089F48D919C911197820F931F2091D60669
:101740003091D7062817390769F5B093D706A093CB
:10175000D6066EC0FB0140E050E001C0FC01EA1774
:10176000FB0730F482819381AF010097B9F71FC066
:10177000E9012297FB83EA8308811981C901800F5F
:10178000911F8E179F0759F480819181800F911FBF
:10179000029699838883828193819B838A834115F2
:1017A000510529F4B093D906A093D80641C0FA0197
:1017B000B383A283C191D191EC0FFD1FAE17BF0778
:1017C00081F4F901929182918C0F9D1F0296DA01AA
:1017D00011969C938E938281938113969C938E9302
:1017E0001297E0E0F0E002C0FB01BC01DB011296C1
:1017F0008D919C9113970097B9F7CB0102962D918B
:101800003C911197820F931F2091D6063091D706F5
:101810002817390769F4309729F41092D9061092E5
:10182000D80602C0138212827093D7066093D60640
:10183000DF91CF911F910F910895FC01882799277F
:10184000E89421912032E9F3293010F02E30C8F3CA
:101850002B3241F02D3239F4689404C00E94770C89
:10186000820F911D219120532A30C0F31EF49095D0
:1018700081959F4F089545E254E00E94500C0895D1
:10188000FB01DC018D91019080190110D9F3990BB6
:101890000895FB01DC0101900D920020E1F708950D
:1018A000FA01A191B081009719F41097E1F0CD01F0
:1018B000DC01CD010D90002011F4C00113C0FB012B
:1018C0002191222319F02015D9F7F3CFFB012191A3
:1018D000201519F41E92119606C02223C1F70D900F
:1018E0000020A1F7D001FA01A193B08308957AE016
:1018F000979F902D879F802D910D11240895CF9251
:10190000DF92EF92FF920F931F93CF93DF938C019F
:101910006A01FA01838180FF1AC016161706BCF40B
:101920007B01E8010EC0C6010E946C0FFFEF8F3FE4
:101930009F0769F089930894E108F1088A309105BE
:1019400021F021E0E216F10471F7188202C000E0F4
:1019500010E0C801DF91CF911F910F91FF90EF90A0
:10196000DF90CF9008950F931F93CF93DF938C0157
:10197000E091DA06F091DB06838180FF12C0E80176
:101980008091DA069091DB060E946C0F2FEF8F3F5B
:10199000920739F089938A30910591F7219718823F
:1019A00002C000E010E0C801DF91CF911F910F91BC
:1019B0000895CF93DF93CDB7DEB7FE0136966191E0
:1019C00071918091DC069091DD06AF010E944F0D70
:1019D000DF91CF9108956091DC067091DD060E9441
:1019E000AC0F08950F931F93CF93DF938C01E09179
:1019F000DC06F091DD06838181FF1AC0C0E0D0E0F3
:101A000005C01995009711F0CFEFDFEFF801819134
:101A10008F016091DC067091DD06DB011896ED9177
:101A2000FC911997882369F78AE01995009711F0BE
:101A3000CFEFDFEFCE01DF91CF911F910F9108958E
:101A40000F931F93CF93DF93CDB7DEB72E970FB6CB
:101A5000F894DEBF0FBECDBF0E891F8986E08C8350
:101A60001A8309838FEF9FE79E838D83AE01465EC5
:101A70005F4FCE010196688D798D0E944F0DEF81E9
:101A8000F885E00FF11F10822E960FB6F894DEBF96
:101A90000FBECDBFDF91CF911F910F9108952F926F
:101AA0003F924F925F926F927F928F929F92AF92EE
:101AB000BF92CF92DF92EF92FF920F931F93CF933B
:101AC000DF93CDB7DEB72D970FB6F894DEBF0FBE0C
:101AD000CDBF3C017D876C875A01FC0117821682BD
:101AE000838181FFC8C12E010894411C511CF30160
:101AF0009381EC85FD8593FD859193FF8191FD8711
:101B0000EC87882309F4B3C1853241F493FD8591B4
:101B100093FF8191FD87EC87853229F490E0B30132
:101B20000E94AC0FE4CFFF24EE2410E01032B0F49A
:101B30008B3269F08C3228F4803251F0833271F4A8
:101B40000BC08D3239F0803349F411602CC0126023
:101B5000146029C0186027C0106125C017FD2EC071
:101B6000282F20532A3098F416FF08C08F2D880F95
:101B7000F82EFF0CFF0CF80EF20E15C08E2D880FFC
:101B8000E82EEE0CEE0CE80EE20E10620CC08E3267
:101B900021F416FD6CC1106406C08C3611F4106877
:101BA00002C0883659F4EC85FD8593FD859193FF3D
:101BB0008191FD87EC87882309F0B8CF982F955441
:101BC000933018F09052933038F424E030E0A20EB5
:101BD000B31E3FE339830FC0833631F0833781F082
:101BE000833509F05AC022C0F5018081898322E043
:101BF00030E0A20EB31E21E0C22ED12C420114C04F
:101C000092E0292E312C2A0C3B1CF501808091801A
:101C100016FF03C06F2D70E002C06FEF7FEFC401AD
:101C20000E94610F6C0151011F7715C082E0282EC0
:101C3000312C2A0C3B1CF5018080918016FF03C0DB
:101C40006F2D70E002C06FEF7FEFC4010E94560F4E
:101C50006C011068510113FD1CC006C080E290E0C9
:101C6000B3010E94AC0FEA948E2D90E0C816D906FD
:101C7000A8F30FC0F40117FD859117FF81914F0163
:101C800090E0B3010E94AC0FE110EA940894C108FF
:101C9000D108C114D10471F7E7C0843611F0893638
:101CA00051F5F50117FF07C080819181A281B381B1
:101CB00024E030E008C080819181AA2797FDA0959B
:101CC000BA2F22E030E0A20EB31E012F0F76B7FF2D
:101CD00008C0B095A095909581959F4FAF4FBF4F8D
:101CE0000068BC01CD01A2012AE030E00E94D80FBB
:101CF000D82ED4183FC0853721F41F7E2AE030E06B
:101D000020C0197F8F36A9F0803720F4883509F07C
:101D1000AEC00BC0803721F0883709F0A8C001C0E1
:101D2000106114FF09C0146007C014FF08C01660DA
:101D300006C028E030E005C020E130E002C020E12C
:101D400032E0F50117FF07C06081718182819381C4
:101D500044E050E006C06081718180E090E042E0A4
:101D600050E0A40EB51EA2010E94D80FD82ED418A0
:101D7000012F0F7706FF09C00E7FDF1430F404FF38
:101D800006C002FD04C00F7E02C01D2D01C01F2D24
:101D9000802F90E004FF0CC0FE01ED0DF11D2081AD
:101DA000203311F4097E09C002FF06C01E5F05C082
:101DB00086789070009709F01F5F802E992403FDAC
:101DC00012C000FF0DC0FD2C1E1550F4FE0CF11AC0
:101DD0001E2D06C080E290E0B3010E94AC0F1F5F91
:101DE0001E15C0F304C01E1510F4E11A01C0EE2444
:101DF00084FE0FC080E390E0B3010E94AC0F82FE2E
:101E00001FC081FE03C088E590E010C088E790E025
:101E10000DC0C40186789070009791F081FC02C0DB
:101E200080E201C08BE207FD8DE290E0B3010E94E9
:101E3000AC0F06C080E390E0B3010E94AC0FFA94AF
:101E4000DF14C0F3DA94F201ED0DF11D808190E012
:101E5000B3010E94AC0FDD20A9F706C080E290E03C
:101E6000B3010E94AC0FEA94EE20C1F740CEF3011B
:101E70008681978102C08FEF9FEF2D960FB6F89461
:101E8000DEBF0FBECDBFDF91CF911F910F91FF90AD
:101E9000EF90DF90CF90BF90AF909F908F907F900A
:101EA0006F905F904F903F902F900895FC010590A8
:101EB000615070400110D8F7809590958E0F9F1F4C
:101EC0000895FC016150704001900110D8F7809591
:101ED00090958E0F9F1F0895CF93DF93EC012B8178
:101EE00020FF35C026FF09C02F7B2B838E819F8169
:101EF00001969F838E838A8128C022FF0FC0E881CC
:101F0000F9818081992787FD9095009719F42062C7
:101F10002B831DC03196F983E88311C0EA85FB85C8
:101F2000CE01199597FF0BC02B813FEF8F3F930791
:101F300011F480E101C080E2822B8B8308C02E81E6
:101F40003F812F5F3F4F3F832E8390E002C08FEF92
:101F50009FEFDF91CF9108950F931F93CF93DF935E
:101F60008C01EB018B8181FF1BC082FF0DC02E8194
:101F70003F818C819D812817390764F4E881F981BC
:101F80000193F983E88306C0E885F985802F1995C8
:101F9000009731F48E819F8101969F838E8302C0CA
:101FA0000FEF1FEFC801DF91CF911F910F9108959F
:101FB000FA01AA27283051F1203181F1E8946F937A
:101FC0006E7F6E5F7F4F8F4F9F4FAF4FB1E03ED020
:101FD000B4E03CD0670F781F891F9A1FA11D680FBE
:101FE000791F8A1F911DA11D6A0F711D811D911DF1
:101FF000A11D20D009F468943F912AE0269F112466
:102000003019305D3193DEF6CF010895462F4770C9
:10201000405D4193B3E00FD0C9F7F6CF462F4F7024
:10202000405D4A3318F0495D31FD4052419302D082
:10203000A9F7EACFB4E0A695979587957795679528
:10204000BA95C9F700976105710508959B01AC0128
:102050000A2E06945795479537952795BA95C9F74F
:10206000620F731F841F951FA01D0895F894FFCF62
:1020700025640025642069732061207072696D6594
:10208000206E756D626572202121210A00636F75D3
:102090006E743D25640A003E3E20004D494E203AB4
:1020A0002053454300252E3264203A20252E3264E9
:1020B0000A00256400242000256420697320612023
:1020C0007072696D65206E756D6265722121210ADD
:1020D00000636F756E743D25640A0076616C7565EA
:1020E000203A202564007461736B5F74633130346F
:1020F00037612829203A2063757272656E742074E6
:10210000656D7065726174757265203F202564206D
:102110006465677265652E0A0024200020090A0D97
:10212000002121212D313131007072696D650074FB
:10213000633130343761000074696D6572002121AC
:10214000212D323232006C6564002121212D333380
:1021500033002121212D343434002D2D3E256428D7
:10216000256429200000000000010000000000009C
:102170001906000000000002000000002606000012
:102180000000000000000000000000010202030344
:1021900003030404040404040404050505050505FB
:1021A00005050505050505050505060606060606D9
:1021B00006060606060606060606060606060606BF
:1021C00006060606060606060606070707070707A9
:1021D000070707070707070707070707070707078F
:1021E000070707070707070707070707070707077F
:1021F000070707070707070707070707070707076F
:102200000707070707070707070708080808080858
:10221000080808080808080808080808080808083E
:10222000080808080808080808080808080808082E
:10223000080808080808080808080808080808081E
:10224000080808080808080808080808080808080E
:1022500008080808080808080808080808080808FE
:1022600008080808080808080808080808080808EE
:1022700008080808080808080808080808080808DE
:10228000080808080808080808080000E0062000F8
:00000001FF
