:020000023000CC
:100000000D9472800D9494800D9494800D9494803E
:100010000D9494800D9494800D9494800D9494800C
:100020000D9494800D9494800D9494800D949480FC
:100030000D9494800D9494800D9494800D949480EC
:100040000D9494800D9494800D9494800D949480DC
:100050000D9494800D9494800D9494800D949480CC
:100060000D9494800D9494800D9494800D949480BC
:100070000D9494800D9494800D9494800D949480AC
:100080000D9494800D9494800D9494800D9494809C
:100090000D9494800D9494800D9494800D9494808C
:1000A0000D9494800D9494800D9494800D9494807C
:1000B0000D9494800D9494800D9494800D9494806C
:1000C0000D9494800D9494800D9494800D9494805C
:1000D0000D9494800D9494800D9494800D9494804C
:1000E0000D94948011241FBECFEFD1E2DEBFCDBFAF
:1000F00001E00CBF12E0A0E0B2E0ECE3F4E003E0CA
:100100000BBF02C007900D92A030B107D9F71BBEFC
:1001100012E0A0E0B2E001C01D92A030B107E1F70B
:100120000F94F4810D941C820D9400801BBE85B742
:10013000826085BF85B78B7F85BF0C9400000895D2
:1001400088E80F94ED8181E70F94ED8185E60F94A7
:10015000ED8184E50F94ED8184E30F94ED810895A2
:10016000CF930F94E681C82F0F94E6813C2F20E0B7
:10017000A901480F511DCA01CF910895DF92EF9256
:10018000FF920F931F93CF93DF937B018C01DD24AC
:10019000C0E0D0E007C00F94E681F80181938F01A1
:1001A000D80E2196CE15DF05B1F70F94E68191E0C8
:1001B000D81290E0892FDF91CF911F910F91FF907E
:1001C000EF90DF9008950F931F93CF93DF93CDB7F8
:1001D000DEB7C050D1400FB6F894DEBF0FBECDBF22
:1001E00081E20F94ED810F94B0808C018FEF0F3F6F
:1001F000180711F1CE01019660E071E00F94BE8006
:100200008823C1F0CE01019660E071E00F94648113
:10021000C8010F944481C8010F9481810F94898192
:10022000C801BE016F5F7F4F40E051E00F94A58190
:100230008823B1F680E4D5CFC050DF4F0FB6F894D5
:10024000DEBF0FBECDBFDF91CF911F910F910895FB
:1002500007B600FCFDCF08950F931F93CF93DF9354
:100260000F92CDB7DEB78C0169830F94288110936C
:100270001F0000931E00698167BFE8950F90DF9112
:10028000CF911F910F910895282F9BBF80E0922F4F
:1002900063E00F942C8108951F93CF93DF93C1E007
:1002A000D0E01881709301006093000090931F00CC
:1002B00080931E000F94288181E087BFE895188302
:1002C000DF91CF911F910895EF92FF920F931F93AB
:1002D000CF93DF937B018C01C0E0D0E008C0F80130
:1002E000619171918F01CE010F944C812296CE15B0
:1002F000DF05A8F3DF91CF911F910F91FF90EF9051
:100300000895282F9BBF80E0922F65E00F942C81E9
:10031000089580E090E061E10F942C81089590931E
:100320001F0080931E008691089590931F00809374
:100330001E0087919691089590931F0080931E0050
:10034000869108950F9495810895CF92DF92EF9250
:10035000FF920F931F93CF93DF936A019BBF182FD8
:1003600000E07B01C0E0D0E00DC0CE01800F911F06
:100370000F94A281F701219131917F018217930798
:1003800031F42296CC15DD0580F381E001C080E0D8
:10039000DF91CF911F910F91FF90EF90DF90CF9061
:1003A00008951092C5008FE28093C400E1ECF0E064
:1003B00080818861808308958091C0008095881F26
:1003C0008827881F08958091C60008958091C000F5
:1003D00087FFFCCF8091C60008959091C00095FFE3
:1003E000FCCF8093C6000895CF930F94D1818EE304
:1003F0000F94ED81CAE08FEF9FE3A2E0815090401F
:10040000A040E1F700C000000F94DC81882311F0C8
:10041000C15089F70F94DC81882341F40F94E68161
:100420008C3321F40F94A0800F94E3800F94968076
:0C04300080E090E0CF910895F894FFCF99
:0400000330000000C9
:00000001FF
