:100000000C9472000C9494000C9494000C94940042
:100010000C9494000C9494000C9494000C94940010
:100020000C9494000C9494000C9494000C94940000
:100030000C9494000C9494000C9494000C949400F0
:100040000C9494000C9494000C9494000C949400E0
:100050000C9494000C9494000C9494000C949400D0
:100060000C9494000C9494000C9494000C949400C0
:100070000C9494000C9494000C9494000C949400B0
:100080000C9494000C9494000C9494000C949400A0
:100090000C9494000C9494000C9494000C94940090
:1000A0000C9494000C9494000C9494000C94940080
:1000B0000C9494000C9494000C9494000C94940070
:1000C0000C9494000C9494000C9494000C94940060
:1000D0000C9494000C9494000C9494000C94940050
:1000E0000C94940011241FBECFEFD1E2DEBFCDBF30
:1000F00000E00CBF12E0A0E0B2E0EAEFF1E000E0C7
:100100000BBF02C007900D92A030B107D9F71BBEFC
:1001100012E0A0E0B2E001C01D92A030B107E1F70B
:100120000E94FA000C94FB000C94000007B600FC3F
:10013000FDCF08950F931F93CF93DF930F92CDB709
:10014000DEB78C0169830E94960010931F00009314
:100150001E00698167BFE8950F90DF91CF911F91D5
:100160000F910895282F9BBF80E0922F63E00E949B
:100170009A00089580E090E061E10E949A0008955D
:10018000CF93DF93C0E0D0E07983688390931F0022
:1001900080931E000E94960081E087BFE8958881C9
:1001A00080930100DF91CF910895EF92FF920F931A
:1001B0001F93CF93DF937B018C01C0E0D0E008C098
:1001C000F801619171918F01CE010E94C0002296C9
:1001D000CE15DF05A8F3DF91CF911F910F91FF900E
:1001E000EF900895282F9BBF80E0922F65E00E943A
:0A01F0009A000895FFCFF894FFCFA6
:00000001FF
